{
  "contractName": "Healthcare",
  "abi": [
    {
      "anonymous": false,
      "inputs": [
        {
          "internalType": "xstring",
          "name": "doctorId",
          "type": "string"
        },
        {
          "indexed": false,
          "internalType": "string",
          "name": "name",
          "type": "string"
        }
      ],
      "name": "PatientRegistered",
      "type": "event"
    },
    {
      "inputs": [
        {
          "internalType": "string",
          "name": "",
          "type": "string"
        }
      ],
      "name": "patientIdToAddress",
      "outputs": [
        {
          "internalType": "address",
          "name": "",
          "type": "address"
        }
      ],
      "stateMutability": "view",
      "type": "function",
      "constant": true
    },
    {
      "inputs": [
        {
          "internalType": "address",
          "name": "",
          "type": "address"
        }
      ],
      "name": "patients",
      "outputs": [
        {
          "internalType": "string",
          "name": "name",
          "type": "string"
        },
        {
          "internalType": "uint256",
          "name": "age",
          "type": "uint256"
        },
        {
          "internalType": "string",
          "name": "email",
          "type": "string"
        },
        {
          "internalType": "string",
          "name": "patientId",
          "type": "string"
        },
        {
          "internalType": "address",
          "name": "wallet",
          "type": "address"
        }
      ],
      "stateMutability": "view",
      "type": "function",
      "constant": true
    },
    {
      "inputs": [
        {
          "internalType": "string",
          "name": "name",
          "type": "string"
        },
        {
          "internalType": "uint256",
          "name": "age",
          "type": "uint256"
        },
        {
          "internalType": "string",
          "name": "email",
          "type": "string"
        },
        {
          "internalType": "string",
          "name": "patientId",
          "type": "string"
        }
      ],
      "name": "registerPatient",
      "outputs": [],
      "stateMutability": "nonpayable",
      "type": "function"
    },
    {
      "inputs": [
        {
          "internalType": "address",
          "name": "patientAddr",
          "type": "address"
        }
      ],
      "name": "getPatient",
      "outputs": [
        {
          "internalType": "string",
          "name": "name",
          "type": "string"
        },
        {
          "internalType": "uint256",
          "name": "age",
          "type": "uint256"
        },
        {
          "internalType": "string",
          "name": "email",
          "type": "string"
        },
        {
          "internalType": "string",
          "name": "patientId",
          "type": "string"
        },
        {
          "internalType": "address",
          "name": "wallet",
          "type": "address"
        }
      ],
      "stateMutability": "view",
      "type": "function",
      "constant": true
    },
    {
      "inputs": [
        {
          "internalType": "string",
          "name": "patientId",
          "type": "string"
        }
      ],
      "name": "getPatientById",
      "outputs": [
        {
          "internalType": "string",
          "name": "name",
          "type": "string"
        },
        {
          "internalType": "uint256",
          "name": "age",
          "type": "uint256"
        },
        {
          "internalType": "string",
          "name": "email",
          "type": "string"
        },
        {
          "internalType": "address",
          "name": "wallet",
          "type": "address"
        }
      ],
      "stateMutability": "view",
      "type": "function",
      "constant": true
    }
  ],
  "bytecode": "0x608060405234801561001057600080fd5b50611567806100206000396000f3fe608060405234801561001057600080fd5b50600436106100575760003560e01c80630869cfbc1461005c578063b5368e2014610090578063ceef8940146100c4578063eb343aa0146100f7578063fa2323d214610127575b600080fd5b61007660048036038101906100719190610e46565b610143565b604051610087959493929190611234565b60405180910390f35b6100aa60048036038101906100a59190610e46565b610331565b6040516100bb959493929190611234565b60405180910390f35b6100de60048036038101906100d99190610e6f565b6105c9565b6040516100ee94939291906111e1565b60405180910390f35b610111600480360381019061010c9190610e6f565b61089b565b60405161011e919061117a565b60405180910390f35b610141600480360381019061013c9190610eb0565b6108e4565b005b600060205280600052604060002060009150905080600001805461016690611462565b80601f016020809104026020016040519081016040528092919081815260200182805461019290611462565b80156101df5780601f106101b4576101008083540402835291602001916101df565b820191906000526020600020905b8154815290600101906020018083116101c257829003601f168201915b5050505050908060010154908060020180546101fa90611462565b80601f016020809104026020016040519081016040528092919081815260200182805461022690611462565b80156102735780601f1061024857610100808354040283529160200191610273565b820191906000526020600020905b81548152906001019060200180831161025657829003601f168201915b50505050509080600301805461028890611462565b80601f01602080910402602001604051908101604052809291908181526020018280546102b490611462565b80156103015780601f106102d657610100808354040283529160200191610301565b820191906000526020600020905b8154815290600101906020018083116102e457829003601f168201915b5050505050908060040160009054906101000a900473ffffffffffffffffffffffffffffffffffffffff16905085565b606060006060806000806000808873ffffffffffffffffffffffffffffffffffffffff1673ffffffffffffffffffffffffffffffffffffffff1681526020019081526020016000206040518060a001604052908160008201805461039490611462565b80601f01602080910402602001604051908101604052809291908181526020018280546103c090611462565b801561040d5780601f106103e25761010080835404028352916020019161040d565b820191906000526020600020905b8154815290600101906020018083116103f057829003601f168201915b505050505081526020016001820154815260200160028201805461043090611462565b80601f016020809104026020016040519081016040528092919081815260200182805461045c90611462565b80156104a95780601f1061047e576101008083540402835291602001916104a9565b820191906000526020600020905b81548152906001019060200180831161048c57829003601f168201915b505050505081526020016003820180546104c290611462565b80601f01602080910402602001604051908101604052809291908181526020018280546104ee90611462565b801561053b5780601f106105105761010080835404028352916020019161053b565b820191906000526020600020905b81548152906001019060200180831161051e57829003601f168201915b505050505081526020016004820160009054906101000a900473ffffffffffffffffffffffffffffffffffffffff1673ffffffffffffffffffffffffffffffffffffffff1673ffffffffffffffffffffffffffffffffffffffff1681525050905080600001518160200151826040015183606001518460800151955095509550955095505091939590929450565b6060600060606000806001866040516105e29190611163565b908152602001604051809103902060009054906101000a900473ffffffffffffffffffffffffffffffffffffffff16905060008060008373ffffffffffffffffffffffffffffffffffffffff1673ffffffffffffffffffffffffffffffffffffffff1681526020019081526020016000206040518060a001604052908160008201805461066e90611462565b80601f016020809104026020016040519081016040528092919081815260200182805461069a90611462565b80156106e75780601f106106bc576101008083540402835291602001916106e7565b820191906000526020600020905b8154815290600101906020018083116106ca57829003601f168201915b505050505081526020016001820154815260200160028201805461070a90611462565b80601f016020809104026020016040519081016040528092919081815260200182805461073690611462565b80156107835780601f1061075857610100808354040283529160200191610783565b820191906000526020600020905b81548152906001019060200180831161076657829003601f168201915b5050505050815260200160038201805461079c90611462565b80601f01602080910402602001604051908101604052809291908181526020018280546107c890611462565b80156108155780601f106107ea57610100808354040283529160200191610815565b820191906000526020600020905b8154815290600101906020018083116107f857829003601f168201915b505050505081526020016004820160009054906101000a900473ffffffffffffffffffffffffffffffffffffffff1673ffffffffffffffffffffffffffffffffffffffff1673ffffffffffffffffffffffffffffffffffffffff168152505090508060000151816020015182604001518360800151955095509550955050509193509193565b6001818051602081018201805184825260208301602085012081835280955050505050506000915054906101000a900473ffffffffffffffffffffffffffffffffffffffff1681565b6000845111610928576040517f08c379a000000000000000000000000000000000000000000000000000000000815260040161091f906112fc565b60405180910390fd5b6000831161096b576040517f08c379a00000000000000000000000000000000000000000000000000000000081526004016109629061133c565b60405180910390fd5b60008251116109af576040517f08c379a00000000000000000000000000000000000000000000000000000000081526004016109a6906112bc565b60405180910390fd5b60008151116109f3576040517f08c379a00000000000000000000000000000000000000000000000000000000081526004016109ea906112dc565b60405180910390fd5b600073ffffffffffffffffffffffffffffffffffffffff16600182604051610a1b9190611163565b908152602001604051809103902060009054906101000a900473ffffffffffffffffffffffffffffffffffffffff1673ffffffffffffffffffffffffffffffffffffffff1614610aa0576040517f08c379a0000000000000000000000000000000000000000000000000000000008152600401610a979061131c565b60405180910390fd5b60008060003373ffffffffffffffffffffffffffffffffffffffff1673ffffffffffffffffffffffffffffffffffffffff1681526020019081526020016000206000018054610aee90611462565b905014610b30576040517f08c379a0000000000000000000000000000000000000000000000000000000008152600401610b279061129c565b60405180910390fd5b60006040518060a001604052808681526020018581526020018481526020018381526020013373ffffffffffffffffffffffffffffffffffffffff168152509050806000803373ffffffffffffffffffffffffffffffffffffffff1673ffffffffffffffffffffffffffffffffffffffff1681526020019081526020016000206000820151816000019080519060200190610bcc929190610d11565b50602082015181600101556040820151816002019080519060200190610bf3929190610d11565b506060820151816003019080519060200190610c10929190610d11565b5060808201518160040160006101000a81548173ffffffffffffffffffffffffffffffffffffffff021916908373ffffffffffffffffffffffffffffffffffffffff16021790555090505033600183604051610c6c9190611163565b908152602001604051809103902060006101000a81548173ffffffffffffffffffffffffffffffffffffffff021916908373ffffffffffffffffffffffffffffffffffffffff1602179055503373ffffffffffffffffffffffffffffffffffffffff167fe3b9cd36563879b33da58985c5f99249a9f5e2ba47f28abf9d4d6da112d72b5e868585604051610d0293929190611195565b60405180910390a25050505050565b828054610d1d90611462565b90600052602060002090601f016020900481019282610d3f5760008555610d86565b82601f10610d5857805160ff1916838001178555610d86565b82800160010185558215610d86579182015b82811115610d85578251825591602001919060010190610d6a565b5b509050610d939190610d97565b5090565b5b80821115610db0576000816000905550600101610d98565b5090565b6000610dc7610dc28461138d565b61135c565b905082815260208101848484011115610ddf57600080fd5b610dea848285611420565b509392505050565b600081359050610e0181611503565b92915050565b600082601f830112610e1857600080fd5b8135610e28848260208601610db4565b91505092915050565b600081359050610e408161151a565b92915050565b600060208284031215610e5857600080fd5b6000610e6684828501610df2565b91505092915050565b600060208284031215610e8157600080fd5b600082013567ffffffffffffffff811115610e9b57600080fd5b610ea784828501610e07565b91505092915050565b60008060008060808587031215610ec657600080fd5b600085013567ffffffffffffffff811115610ee057600080fd5b610eec87828801610e07565b9450506020610efd87828801610e31565b935050604085013567ffffffffffffffff811115610f1a57600080fd5b610f2687828801610e07565b925050606085013567ffffffffffffffff811115610f4357600080fd5b610f4f87828801610e07565b91505092959194509250565b610f64816113e4565b82525050565b6000610f75826113bd565b610f7f81856113c8565b9350610f8f81856020860161142f565b610f98816114f2565b840191505092915050565b6000610fae826113bd565b610fb881856113d9565b9350610fc881856020860161142f565b80840191505092915050565b6000610fe1601a836113c8565b91507f50617469656e7420616c726561647920726567697374657265640000000000006000830152602082019050919050565b60006110216011836113c8565b91507f456d61696c2069732072657175697265640000000000000000000000000000006000830152602082019050919050565b60006110616016836113c8565b91507f50617469656e74204944206973207265717569726564000000000000000000006000830152602082019050919050565b60006110a16010836113c8565b91507f4e616d65206973207265717569726564000000000000000000000000000000006000830152602082019050919050565b60006110e16017836113c8565b91507f50617469656e7420494420616c726561647920757365640000000000000000006000830152602082019050919050565b6000611121600b836113c8565b91507f496e76616c6964206167650000000000000000000000000000000000000000006000830152602082019050919050565b61115d81611416565b82525050565b600061116f8284610fa3565b915081905092915050565b600060208201905061118f6000830184610f5b565b92915050565b600060608201905081810360008301526111af8186610f6a565b905081810360208301526111c38185610f6a565b905081810360408301526111d78184610f6a565b9050949350505050565b600060808201905081810360008301526111fb8187610f6a565b905061120a6020830186611154565b818103604083015261121c8185610f6a565b905061122b6060830184610f5b565b95945050505050565b600060a082019050818103600083015261124e8188610f6a565b905061125d6020830187611154565b818103604083015261126f8186610f6a565b905081810360608301526112838185610f6a565b90506112926080830184610f5b565b9695505050505050565b600060208201905081810360008301526112b581610fd4565b9050919050565b600060208201905081810360008301526112d581611014565b9050919050565b600060208201905081810360008301526112f581611054565b9050919050565b6000602082019050818103600083015261131581611094565b9050919050565b60006020820190508181036000830152611335816110d4565b9050919050565b6000602082019050818103600083015261135581611114565b9050919050565b6000604051905081810181811067ffffffffffffffff82111715611383576113826114c3565b5b8060405250919050565b600067ffffffffffffffff8211156113a8576113a76114c3565b5b601f19601f8301169050602081019050919050565b600081519050919050565b600082825260208201905092915050565b600081905092915050565b60006113ef826113f6565b9050919050565b600073ffffffffffffffffffffffffffffffffffffffff82169050919050565b6000819050919050565b82818337600083830152505050565b60005b8381101561144d578082015181840152602081019050611432565b8381111561145c576000848401525b50505050565b6000600282049050600182168061147a57607f821691505b6020821081141561148e5761148d611494565b5b50919050565b7f4e487b7100000000000000000000000000000000000000000000000000000000600052602260045260246000fd5b7f4e487b7100000000000000000000000000000000000000000000000000000000600052604160045260246000fd5b6000601f19601f8301169050919050565b61150c816113e4565b811461151757600080fd5b50565b61152381611416565b811461152e57600080fd5b5056fea2646970667358221220ec58bb2e15c45e3b5f9bbae8cd7320b04482d6775b46a9dcb3f86ee6fe4320a064736f6c63430008000033",
  "immutableReferences": {},
  "source": "// SPDX-License-Identifier: MIT\r\npragma solidity ^0.8.0;\r\n\r\ncontract Healthcare {\r\n    \r\n    struct Patient {\r\n        string name;\r\n        uint age;\r\n        string email;\r\n        string patientId;\r\n        address wallet;\r\n    }\r\n\r\n    mapping(address => Patient) public patients;\r\n    mapping(string => address) public patientIdToAddress;\r\n\r\n    event PatientRegistered(\r\n        address indexed wallet,\r\n        string name,\r\n        string email,\r\n        string patientId\r\n    );\r\n\r\n    /// @notice Register a new patient\r\n    /// @param name Full name of the patient\r\n    /// @param age Age of the patient\r\n    /// @param email Email address\r\n    /// @param patientId Unique alphanumeric ID\r\n    function registerPatient(\r\n        string memory name,\r\n        uint age,\r\n        string memory email,\r\n        string memory patientId\r\n    ) public {\r\n        require(bytes(name).length > 0, \"Name is required\");\r\n        require(age > 0, \"Invalid age\");\r\n        require(bytes(email).length > 0, \"Email is required\");\r\n        require(bytes(patientId).length > 0, \"Patient ID is required\");\r\n        require(patientIdToAddress[patientId] == address(0), \"Patient ID already used\");\r\n        require(bytes(patients[msg.sender].name).length == 0, \"Patient already registered\");\r\n\r\n        Patient memory newPatient = Patient({\r\n            name: name,\r\n            age: age,\r\n            email: email,\r\n            patientId: patientId,\r\n            wallet: msg.sender\r\n        });\r\n\r\n        patients[msg.sender] = newPatient;\r\n        patientIdToAddress[patientId] = msg.sender;\r\n\r\n        emit PatientRegistered(msg.sender, name, email, patientId);\r\n    }\r\n\r\n    /// @notice Get patient details by wallet\r\n    function getPatient(address patientAddr) public view returns (\r\n        string memory name,\r\n        uint age,\r\n        string memory email,\r\n        string memory patientId,\r\n        address wallet\r\n    ) {\r\n        Patient memory p = patients[patientAddr];\r\n        return (p.name, p.age, p.email, p.patientId, p.wallet);\r\n    }\r\n\r\n    /// @notice Get patient details by patientId\r\n    function getPatientById(string memory patientId) public view returns (\r\n        string memory name,\r\n        uint age,\r\n        string memory email,\r\n        address wallet\r\n    ) {\r\n        address patientAddr = patientIdToAddress[patientId];\r\n        Patient memory p = patients[patientAddr];\r\n        return (p.name, p.age, p.email, p.wallet);\r\n    }\r\n}\r\n//0x88D402E6a4B5e0450d6181ECAB7137cc010cE037",
  "sourcePath": "C:\\Users\\HP\\Desktop\\healthcareDapp\\contracts\\Healthcare.sol",
  "compiler": {
    "name": "solc",
    "version": "0.8.0+commit.c7dfd78e.Emscripten.clang"
  },
  "schemaVersion": "3.4.4",
  "updatedAt": "2025-06-10T21:26:39.630Z",
  "networkType": "ethereum",
  "devdoc": {
    "kind": "dev",
    "methods": {
      "registerPatient(string,uint256,string,string)": {
        "params": {
          "age": "Age of the patient",
          "email": "Email address",
          "name": "Full name of the patient",
          "patientId": "Unique alphanumeric ID"
        }
      }
    },
    "version": 1
  },
  "userdoc": {
    "kind": "user",
    "methods": {
      "getPatient(address)": {
        "notice": "Get patient details by wallet"
      },
      "getPatientById(string)": {
        "notice": "Get patient details by patientId"
      },
      "registerPatient(string,uint256,string,string)": {
        "notice": "Register a new patient"
      }
    },
    "version": 1
  }
}