{
  "contractName": "Healthcare",
  "abi": [
    {
      "anonymous": false,
      "inputs": [
        {
          "indexed": false,
          "internalType": "string",
          "name": "doctorId",
          "type": "string"
        },
        {
          "indexed": false,
          "internalType": "string",
          "name": "name",
          "type": "string"
        }
      ],
      "name": "DoctorRegistered",
      "type": "event"
    },
    {
      "anonymous": false,
      "inputs": [
        {
          "indexed": false,
          "internalType": "string",
          "name": "patientId",
          "type": "string"
        },
        {
          "indexed": false,
          "internalType": "string",
          "name": "name",
          "type": "string"
        }
      ],
      "name": "PatientRegistered",
      "type": "event"
    },
    {
      "inputs": [],
      "name": "doctorCount",
      "outputs": [
        {
          "internalType": "uint256",
          "name": "",
          "type": "uint256"
        }
      ],
      "stateMutability": "view",
      "type": "function",
      "constant": true
    },
    {
      "inputs": [
        {
          "internalType": "uint256",
          "name": "",
          "type": "uint256"
        }
      ],
      "name": "doctorIds",
      "outputs": [
        {
          "internalType": "string",
          "name": "",
          "type": "string"
        }
      ],
      "stateMutability": "view",
      "type": "function",
      "constant": true
    },
    {
      "inputs": [
        {
          "internalType": "string",
          "name": "",
          "type": "string"
        }
      ],
      "name": "doctors",
      "outputs": [
        {
          "internalType": "string",
          "name": "doctorId",
          "type": "string"
        },
        {
          "internalType": "string",
          "name": "name",
          "type": "string"
        },
        {
          "internalType": "string",
          "name": "phone",
          "type": "string"
        },
        {
          "internalType": "string",
          "name": "password",
          "type": "string"
        }
      ],
      "stateMutability": "view",
      "type": "function",
      "constant": true
    },
    {
      "inputs": [],
      "name": "patientCount",
      "outputs": [
        {
          "internalType": "uint256",
          "name": "",
          "type": "uint256"
        }
      ],
      "stateMutability": "view",
      "type": "function",
      "constant": true
    },
    {
      "inputs": [
        {
          "internalType": "uint256",
          "name": "",
          "type": "uint256"
        }
      ],
      "name": "patientIds",
      "outputs": [
        {
          "internalType": "string",
          "name": "",
          "type": "string"
        }
      ],
      "stateMutability": "view",
      "type": "function",
      "constant": true
    },
    {
      "inputs": [
        {
          "internalType": "string",
          "name": "",
          "type": "string"
        }
      ],
      "name": "patients",
      "outputs": [
        {
          "internalType": "string",
          "name": "id",
          "type": "string"
        },
        {
          "internalType": "string",
          "name": "name",
          "type": "string"
        },
        {
          "internalType": "string",
          "name": "disease",
          "type": "string"
        },
        {
          "internalType": "string",
          "name": "dob",
          "type": "string"
        },
        {
          "internalType": "string",
          "name": "mobile",
          "type": "string"
        },
        {
          "internalType": "string",
          "name": "email",
          "type": "string"
        },
        {
          "internalType": "string",
          "name": "sbp",
          "type": "string"
        },
        {
          "internalType": "string",
          "name": "sugar",
          "type": "string"
        },
        {
          "internalType": "string",
          "name": "password",
          "type": "string"
        }
      ],
      "stateMutability": "view",
      "type": "function",
      "constant": true
    },
    {
      "inputs": [
        {
          "internalType": "string",
          "name": "_name",
          "type": "string"
        },
        {
          "internalType": "string",
          "name": "_disease",
          "type": "string"
        },
        {
          "internalType": "string",
          "name": "_dob",
          "type": "string"
        },
        {
          "internalType": "string",
          "name": "_mobile",
          "type": "string"
        },
        {
          "internalType": "string",
          "name": "_email",
          "type": "string"
        },
        {
          "internalType": "string",
          "name": "_sbp",
          "type": "string"
        },
        {
          "internalType": "string",
          "name": "_sugar",
          "type": "string"
        },
        {
          "internalType": "string",
          "name": "_password",
          "type": "string"
        }
      ],
      "name": "registerPatient",
      "outputs": [
        {
          "internalType": "string",
          "name": "",
          "type": "string"
        }
      ],
      "stateMutability": "nonpayable",
      "type": "function"
    },
    {
      "inputs": [
        {
          "internalType": "string",
          "name": "_name",
          "type": "string"
        },
        {
          "internalType": "string",
          "name": "_regId",
          "type": "string"
        },
        {
          "internalType": "string",
          "name": "_phone",
          "type": "string"
        },
        {
          "internalType": "string",
          "name": "_password",
          "type": "string"
        }
      ],
      "name": "registerDoctor",
      "outputs": [
        {
          "internalType": "string",
          "name": "",
          "type": "string"
        }
      ],
      "stateMutability": "nonpayable",
      "type": "function"
    },
    {
      "inputs": [
        {
          "internalType": "string",
          "name": "_patientId",
          "type": "string"
        },
        {
          "internalType": "string",
          "name": "_password",
          "type": "string"
        }
      ],
      "name": "loginPatient",
      "outputs": [
        {
          "internalType": "bool",
          "name": "",
          "type": "bool"
        }
      ],
      "stateMutability": "view",
      "type": "function",
      "constant": true
    },
    {
      "inputs": [
        {
          "internalType": "string",
          "name": "_regId",
          "type": "string"
        },
        {
          "internalType": "string",
          "name": "_password",
          "type": "string"
        }
      ],
      "name": "loginDoctor",
      "outputs": [
        {
          "internalType": "bool",
          "name": "",
          "type": "bool"
        }
      ],
      "stateMutability": "view",
      "type": "function",
      "constant": true
    },
    {
      "inputs": [
        {
          "internalType": "string",
          "name": "_patientId",
          "type": "string"
        }
      ],
      "name": "getPatientById",
      "outputs": [
        {
          "internalType": "string",
          "name": "id",
          "type": "string"
        },
        {
          "internalType": "string",
          "name": "name",
          "type": "string"
        },
        {
          "internalType": "string",
          "name": "disease",
          "type": "string"
        },
        {
          "internalType": "string",
          "name": "dob",
          "type": "string"
        },
        {
          "internalType": "string",
          "name": "mobile",
          "type": "string"
        },
        {
          "internalType": "string",
          "name": "email",
          "type": "string"
        },
        {
          "internalType": "string",
          "name": "sbp",
          "type": "string"
        },
        {
          "internalType": "string",
          "name": "sugar",
          "type": "string"
        }
      ],
      "stateMutability": "view",
      "type": "function",
      "constant": true
    },
    {
      "inputs": [
        {
          "internalType": "string",
          "name": "_regId",
          "type": "string"
        }
      ],
      "name": "getDoctorByRegId",
      "outputs": [
        {
          "internalType": "string",
          "name": "name",
          "type": "string"
        },
        {
          "internalType": "string",
          "name": "regId",
          "type": "string"
        },
        {
          "internalType": "string",
          "name": "phone",
          "type": "string"
        }
      ],
      "stateMutability": "view",
      "type": "function",
      "constant": true
    }
  ],
  "bytecode": "0x60806040526000600455600060055534801561001a57600080fd5b506128e08061002a6000396000f3fe608060405234801561001057600080fd5b50600436106100b45760003560e01c8063997f4a4411610071578063997f4a44146101cc578063a0303c41146101fc578063c6009d841461021a578063c86611e914610252578063ceef894014610282578063d0155f2e146102b9576100b4565b806305c35ce5146100b957806315802c6a146100ec57806329cf54a31461011c57806333a8587f1461014c5780636021bafd1461017c57806378522bc4146101ae575b600080fd5b6100d360048036038101906100ce9190611c64565b6102e9565b6040516100e3949392919061230a565b60405180910390f35b61010660048036038101906101019190611f46565b61054f565b6040516101139190612265565b60405180910390f35b61013660048036038101906101319190611dd4565b6105fb565b6040516101439190612265565b60405180910390f35b61016660048036038101906101619190611d11565b61089e565b6040516101739190612265565b60405180910390f35b61019660048036038101906101919190611c64565b610a46565b6040516101a5939291906122be565b60405180910390f35b6101b6610cdd565b6040516101c3919061252d565b60405180910390f35b6101e660048036038101906101e19190611f46565b610ce3565b6040516101f39190612265565b60405180910390f35b610204610d8f565b604051610211919061252d565b60405180910390f35b610234600480360381019061022f9190611c64565b610d95565b60405161024999989796959493929190612421565b60405180910390f35b61026c60048036038101906102679190611ca5565b6112c1565b604051610279919061224a565b60405180910390f35b61029c60048036038101906102979190611c64565b61130a565b6040516102b098979695949392919061236b565b60405180910390f35b6102d360048036038101906102ce9190611ca5565b6118a9565b6040516102e0919061224a565b60405180910390f35b6001818051602081018201805184825260208301602085012081835280955050505050506000915090508060000180546103229061274b565b80601f016020809104026020016040519081016040528092919081815260200182805461034e9061274b565b801561039b5780601f106103705761010080835404028352916020019161039b565b820191906000526020600020905b81548152906001019060200180831161037e57829003601f168201915b5050505050908060010180546103b09061274b565b80601f01602080910402602001604051908101604052809291908181526020018280546103dc9061274b565b80156104295780601f106103fe57610100808354040283529160200191610429565b820191906000526020600020905b81548152906001019060200180831161040c57829003601f168201915b50505050509080600201805461043e9061274b565b80601f016020809104026020016040519081016040528092919081815260200182805461046a9061274b565b80156104b75780601f1061048c576101008083540402835291602001916104b7565b820191906000526020600020905b81548152906001019060200180831161049a57829003601f168201915b5050505050908060030180546104cc9061274b565b80601f01602080910402602001604051908101604052809291908181526020018280546104f89061274b565b80156105455780601f1061051a57610100808354040283529160200191610545565b820191906000526020600020905b81548152906001019060200180831161052857829003601f168201915b5050505050905084565b6002818154811061055f57600080fd5b90600052602060002001600091509050805461057a9061274b565b80601f01602080910402602001604051908101604052809291908181526020018280546105a69061274b565b80156105f35780601f106105c8576101008083540402835291602001916105f3565b820191906000526020600020905b8154815290600101906020018083116105d657829003601f168201915b505050505081565b6060600460008154809291906106109061277d565b919050555060006106226004546118f2565b6040516020016106329190612206565b60405160208183030381529060405290506000808260405161065491906121cd565b908152602001604051809103902060000180546106709061274b565b9050146106b2576040517f08c379a00000000000000000000000000000000000000000000000000000000081526004016106a9906124ed565b60405180910390fd5b6040518061012001604052808281526020018b81526020018a81526020018981526020018881526020018781526020018681526020018581526020018481525060008260405161070291906121cd565b9081526020016040518091039020600082015181600001908051906020019061072c929190611b44565b506020820151816001019080519060200190610749929190611b44565b506040820151816002019080519060200190610766929190611b44565b506060820151816003019080519060200190610783929190611b44565b5060808201518160040190805190602001906107a0929190611b44565b5060a08201518160050190805190602001906107bd929190611b44565b5060c08201518160060190805190602001906107da929190611b44565b5060e08201518160070190805190602001906107f7929190611b44565b50610100820151816008019080519060200190610815929190611b44565b50905050600281908060018154018082558091505060019003906000526020600020016000909190919091509080519060200190610854929190611b44565b507ff57ecee040edfbd184404d12d5f2f7343575add2ba648066a9a501fa19bf3a27818b604051610886929190612287565b60405180910390a18091505098975050505050505050565b606060006001856040516108b291906121cd565b908152602001604051809103902060000180546108ce9061274b565b905014610910576040517f08c379a00000000000000000000000000000000000000000000000000000000081526004016109079061250d565b60405180910390fd5b60405180608001604052808581526020018681526020018481526020018381525060018560405161094191906121cd565b9081526020016040518091039020600082015181600001908051906020019061096b929190611b44565b506020820151816001019080519060200190610988929190611b44565b5060408201518160020190805190602001906109a5929190611b44565b5060608201518160030190805190602001906109c2929190611b44565b50905050600384908060018154018082558091505060019003906000526020600020016000909190919091509080519060200190610a01929190611b44565b507fcd699b2b5581050eaf5ec3b85c200f9b500741fb22238e0234ccd63b398a8e8b8486604051610a33929190612287565b60405180910390a1839050949350505050565b60608060606000600185604051610a5d91906121cd565b9081526020016040518091039020604051806080016040529081600082018054610a869061274b565b80601f0160208091040260200160405190810160405280929190818152602001828054610ab29061274b565b8015610aff5780601f10610ad457610100808354040283529160200191610aff565b820191906000526020600020905b815481529060010190602001808311610ae257829003601f168201915b50505050508152602001600182018054610b189061274b565b80601f0160208091040260200160405190810160405280929190818152602001828054610b449061274b565b8015610b915780601f10610b6657610100808354040283529160200191610b91565b820191906000526020600020905b815481529060010190602001808311610b7457829003601f168201915b50505050508152602001600282018054610baa9061274b565b80601f0160208091040260200160405190810160405280929190818152602001828054610bd69061274b565b8015610c235780601f10610bf857610100808354040283529160200191610c23565b820191906000526020600020905b815481529060010190602001808311610c0657829003601f168201915b50505050508152602001600382018054610c3c9061274b565b80601f0160208091040260200160405190810160405280929190818152602001828054610c689061274b565b8015610cb55780601f10610c8a57610100808354040283529160200191610cb5565b820191906000526020600020905b815481529060010190602001808311610c9857829003601f168201915b5050505050815250509050806020015181600001518260400151935093509350509193909250565b60055481565b60038181548110610cf357600080fd5b906000526020600020016000915090508054610d0e9061274b565b80601f0160208091040260200160405190810160405280929190818152602001828054610d3a9061274b565b8015610d875780601f10610d5c57610100808354040283529160200191610d87565b820191906000526020600020905b815481529060010190602001808311610d6a57829003601f168201915b505050505081565b60045481565b600081805160208101820180518482526020830160208501208183528095505050505050600091509050806000018054610dce9061274b565b80601f0160208091040260200160405190810160405280929190818152602001828054610dfa9061274b565b8015610e475780601f10610e1c57610100808354040283529160200191610e47565b820191906000526020600020905b815481529060010190602001808311610e2a57829003601f168201915b505050505090806001018054610e5c9061274b565b80601f0160208091040260200160405190810160405280929190818152602001828054610e889061274b565b8015610ed55780601f10610eaa57610100808354040283529160200191610ed5565b820191906000526020600020905b815481529060010190602001808311610eb857829003601f168201915b505050505090806002018054610eea9061274b565b80601f0160208091040260200160405190810160405280929190818152602001828054610f169061274b565b8015610f635780601f10610f3857610100808354040283529160200191610f63565b820191906000526020600020905b815481529060010190602001808311610f4657829003601f168201915b505050505090806003018054610f789061274b565b80601f0160208091040260200160405190810160405280929190818152602001828054610fa49061274b565b8015610ff15780601f10610fc657610100808354040283529160200191610ff1565b820191906000526020600020905b815481529060010190602001808311610fd457829003601f168201915b5050505050908060040180546110069061274b565b80601f01602080910402602001604051908101604052809291908181526020018280546110329061274b565b801561107f5780601f106110545761010080835404028352916020019161107f565b820191906000526020600020905b81548152906001019060200180831161106257829003601f168201915b5050505050908060050180546110949061274b565b80601f01602080910402602001604051908101604052809291908181526020018280546110c09061274b565b801561110d5780601f106110e25761010080835404028352916020019161110d565b820191906000526020600020905b8154815290600101906020018083116110f057829003601f168201915b5050505050908060060180546111229061274b565b80601f016020809104026020016040519081016040528092919081815260200182805461114e9061274b565b801561119b5780601f106111705761010080835404028352916020019161119b565b820191906000526020600020905b81548152906001019060200180831161117e57829003601f168201915b5050505050908060070180546111b09061274b565b80601f01602080910402602001604051908101604052809291908181526020018280546111dc9061274b565b80156112295780601f106111fe57610100808354040283529160200191611229565b820191906000526020600020905b81548152906001019060200180831161120c57829003601f168201915b50505050509080600801805461123e9061274b565b80601f016020809104026020016040519081016040528092919081815260200182805461126a9061274b565b80156112b75780601f1061128c576101008083540402835291602001916112b7565b820191906000526020600020905b81548152906001019060200180831161129a57829003601f168201915b5050505050905089565b600081805190602001206000846040516112db91906121cd565b90815260200160405180910390206008016040516112f991906121b6565b604051809103902014905092915050565b6060806060806060806060806000808a60405161132791906121cd565b9081526020016040518091039020604051806101200160405290816000820180546113519061274b565b80601f016020809104026020016040519081016040528092919081815260200182805461137d9061274b565b80156113ca5780601f1061139f576101008083540402835291602001916113ca565b820191906000526020600020905b8154815290600101906020018083116113ad57829003601f168201915b505050505081526020016001820180546113e39061274b565b80601f016020809104026020016040519081016040528092919081815260200182805461140f9061274b565b801561145c5780601f106114315761010080835404028352916020019161145c565b820191906000526020600020905b81548152906001019060200180831161143f57829003601f168201915b505050505081526020016002820180546114759061274b565b80601f01602080910402602001604051908101604052809291908181526020018280546114a19061274b565b80156114ee5780601f106114c3576101008083540402835291602001916114ee565b820191906000526020600020905b8154815290600101906020018083116114d157829003601f168201915b505050505081526020016003820180546115079061274b565b80601f01602080910402602001604051908101604052809291908181526020018280546115339061274b565b80156115805780601f1061155557610100808354040283529160200191611580565b820191906000526020600020905b81548152906001019060200180831161156357829003601f168201915b505050505081526020016004820180546115999061274b565b80601f01602080910402602001604051908101604052809291908181526020018280546115c59061274b565b80156116125780601f106115e757610100808354040283529160200191611612565b820191906000526020600020905b8154815290600101906020018083116115f557829003601f168201915b5050505050815260200160058201805461162b9061274b565b80601f01602080910402602001604051908101604052809291908181526020018280546116579061274b565b80156116a45780601f10611679576101008083540402835291602001916116a4565b820191906000526020600020905b81548152906001019060200180831161168757829003601f168201915b505050505081526020016006820180546116bd9061274b565b80601f01602080910402602001604051908101604052809291908181526020018280546116e99061274b565b80156117365780601f1061170b57610100808354040283529160200191611736565b820191906000526020600020905b81548152906001019060200180831161171957829003601f168201915b5050505050815260200160078201805461174f9061274b565b80601f016020809104026020016040519081016040528092919081815260200182805461177b9061274b565b80156117c85780601f1061179d576101008083540402835291602001916117c8565b820191906000526020600020905b8154815290600101906020018083116117ab57829003601f168201915b505050505081526020016008820180546117e19061274b565b80601f016020809104026020016040519081016040528092919081815260200182805461180d9061274b565b801561185a5780601f1061182f5761010080835404028352916020019161185a565b820191906000526020600020905b81548152906001019060200180831161183d57829003601f168201915b5050505050815250509050806000015181602001518260400151836060015184608001518560a001518660c001518760e001519850985098509850985098509850985050919395975091939597565b600081805190602001206001846040516118c391906121cd565b90815260200160405180910390206003016040516118e191906121b6565b604051809103902014905092915050565b6060600a82101561192c5761190682611975565b6040516020016119169190612228565b6040516020818303038152906040529050611970565b60648210156119645761193e82611975565b60405160200161194e91906121e4565b6040516020818303038152906040529050611970565b61196d82611975565b90505b919050565b606060008214156119bd576040518060400160405280600181526020017f30000000000000000000000000000000000000000000000000000000000000008152509050611b3f565b600082905060005b600082146119ef5780806119d89061277d565b915050600a826119e89190612627565b91506119c5565b60008167ffffffffffffffff811115611a31577f4e487b7100000000000000000000000000000000000000000000000000000000600052604160045260246000fd5b6040519080825280601f01601f191660200182016040528015611a635781602001600182028036833780820191505090505b50905060008290505b60008614611b3757600181611a8191906126b2565b90506000600a8088611a939190612627565b611a9d9190612658565b87611aa891906126b2565b6030611ab491906125f0565b90508060f81b838381518110611af3577f4e487b7100000000000000000000000000000000000000000000000000000000600052603260045260246000fd5b60200101907effffffffffffffffffffffffffffffffffffffffffffffffffffffffffffff1916908160001a905350600a87611b2f9190612627565b965050611a6c565b819450505050505b919050565b828054611b509061274b565b90600052602060002090601f016020900481019282611b725760008555611bb9565b82601f10611b8b57805160ff1916838001178555611bb9565b82800160010185558215611bb9579182015b82811115611bb8578251825591602001919060010190611b9d565b5b509050611bc69190611bca565b5090565b5b80821115611be3576000816000905550600101611bcb565b5090565b6000611bfa611bf584612579565b612548565b905082815260208101848484011115611c1257600080fd5b611c1d848285612709565b509392505050565b600082601f830112611c3657600080fd5b8135611c46848260208601611be7565b91505092915050565b600081359050611c5e81612893565b92915050565b600060208284031215611c7657600080fd5b600082013567ffffffffffffffff811115611c9057600080fd5b611c9c84828501611c25565b91505092915050565b60008060408385031215611cb857600080fd5b600083013567ffffffffffffffff811115611cd257600080fd5b611cde85828601611c25565b925050602083013567ffffffffffffffff811115611cfb57600080fd5b611d0785828601611c25565b9150509250929050565b60008060008060808587031215611d2757600080fd5b600085013567ffffffffffffffff811115611d4157600080fd5b611d4d87828801611c25565b945050602085013567ffffffffffffffff811115611d6a57600080fd5b611d7687828801611c25565b935050604085013567ffffffffffffffff811115611d9357600080fd5b611d9f87828801611c25565b925050606085013567ffffffffffffffff811115611dbc57600080fd5b611dc887828801611c25565b91505092959194509250565b600080600080600080600080610100898b031215611df157600080fd5b600089013567ffffffffffffffff811115611e0b57600080fd5b611e178b828c01611c25565b985050602089013567ffffffffffffffff811115611e3457600080fd5b611e408b828c01611c25565b975050604089013567ffffffffffffffff811115611e5d57600080fd5b611e698b828c01611c25565b965050606089013567ffffffffffffffff811115611e8657600080fd5b611e928b828c01611c25565b955050608089013567ffffffffffffffff811115611eaf57600080fd5b611ebb8b828c01611c25565b94505060a089013567ffffffffffffffff811115611ed857600080fd5b611ee48b828c01611c25565b93505060c089013567ffffffffffffffff811115611f0157600080fd5b611f0d8b828c01611c25565b92505060e089013567ffffffffffffffff811115611f2a57600080fd5b611f368b828c01611c25565b9150509295985092959890939650565b600060208284031215611f5857600080fd5b6000611f6684828501611c4f565b91505092915050565b611f78816126e6565b82525050565b60008154611f8b8161274b565b611f9581866125c9565b94506001821660008114611fb05760018114611fc157611ff4565b60ff19831686528186019350611ff4565b611fca856125a9565b60005b83811015611fec57815481890152600182019150602081019050611fcd565b838801955050505b50505092915050565b6000612008826125be565b61201281856125d4565b9350612022818560208601612718565b61202b81612882565b840191505092915050565b6000612041826125be565b61204b81856125e5565b935061205b818560208601612718565b80840191505092915050565b60006120746001836125e5565b91507f30000000000000000000000000000000000000000000000000000000000000006000830152600182019050919050565b60006120b4601a836125d4565b91507f50617469656e7420616c726561647920726567697374657265640000000000006000830152602082019050919050565b60006120f46001836125e5565b91507f50000000000000000000000000000000000000000000000000000000000000006000830152600182019050919050565b60006121346019836125d4565b91507f446f63746f7220616c72656164792072656769737465726564000000000000006000830152602082019050919050565b60006121746002836125e5565b91507f30300000000000000000000000000000000000000000000000000000000000006000830152600282019050919050565b6121b0816126f2565b82525050565b60006121c28284611f7e565b915081905092915050565b60006121d98284612036565b915081905092915050565b60006121ef82612067565b91506121fb8284612036565b915081905092915050565b6000612211826120e7565b915061221d8284612036565b915081905092915050565b600061223382612167565b915061223f8284612036565b915081905092915050565b600060208201905061225f6000830184611f6f565b92915050565b6000602082019050818103600083015261227f8184611ffd565b905092915050565b600060408201905081810360008301526122a18185611ffd565b905081810360208301526122b58184611ffd565b90509392505050565b600060608201905081810360008301526122d88186611ffd565b905081810360208301526122ec8185611ffd565b905081810360408301526123008184611ffd565b9050949350505050565b600060808201905081810360008301526123248187611ffd565b905081810360208301526123388186611ffd565b9050818103604083015261234c8185611ffd565b905081810360608301526123608184611ffd565b905095945050505050565b6000610100820190508181036000830152612386818b611ffd565b9050818103602083015261239a818a611ffd565b905081810360408301526123ae8189611ffd565b905081810360608301526123c28188611ffd565b905081810360808301526123d68187611ffd565b905081810360a08301526123ea8186611ffd565b905081810360c08301526123fe8185611ffd565b905081810360e08301526124128184611ffd565b90509998505050505050505050565b600061012082019050818103600083015261243c818c611ffd565b90508181036020830152612450818b611ffd565b90508181036040830152612464818a611ffd565b905081810360608301526124788189611ffd565b9050818103608083015261248c8188611ffd565b905081810360a08301526124a08187611ffd565b905081810360c08301526124b48186611ffd565b905081810360e08301526124c88185611ffd565b90508181036101008301526124dd8184611ffd565b90509a9950505050505050505050565b60006020820190508181036000830152612506816120a7565b9050919050565b6000602082019050818103600083015261252681612127565b9050919050565b600060208201905061254260008301846121a7565b92915050565b6000604051905081810181811067ffffffffffffffff8211171561256f5761256e612853565b5b8060405250919050565b600067ffffffffffffffff82111561259457612593612853565b5b601f19601f8301169050602081019050919050565b60008190508160005260206000209050919050565b600081519050919050565b600081905092915050565b600082825260208201905092915050565b600081905092915050565b60006125fb826126fc565b9150612606836126fc565b92508260ff0382111561261c5761261b6127c6565b5b828201905092915050565b6000612632826126f2565b915061263d836126f2565b92508261264d5761264c6127f5565b5b828204905092915050565b6000612663826126f2565b915061266e836126f2565b9250817fffffffffffffffffffffffffffffffffffffffffffffffffffffffffffffffff04831182151516156126a7576126a66127c6565b5b828202905092915050565b60006126bd826126f2565b91506126c8836126f2565b9250828210156126db576126da6127c6565b5b828203905092915050565b60008115159050919050565b6000819050919050565b600060ff82169050919050565b82818337600083830152505050565b60005b8381101561273657808201518184015260208101905061271b565b83811115612745576000848401525b50505050565b6000600282049050600182168061276357607f821691505b6020821081141561277757612776612824565b5b50919050565b6000612788826126f2565b91507fffffffffffffffffffffffffffffffffffffffffffffffffffffffffffffffff8214156127bb576127ba6127c6565b5b600182019050919050565b7f4e487b7100000000000000000000000000000000000000000000000000000000600052601160045260246000fd5b7f4e487b7100000000000000000000000000000000000000000000000000000000600052601260045260246000fd5b7f4e487b7100000000000000000000000000000000000000000000000000000000600052602260045260246000fd5b7f4e487b7100000000000000000000000000000000000000000000000000000000600052604160045260246000fd5b6000601f19601f8301169050919050565b61289c816126f2565b81146128a757600080fd5b5056fea2646970667358221220193f1752f1bbb03e8127eca7d58a14f43c0ccb8b0547a291bf7efc62b3b0e18f64736f6c63430008000033",
  "immutableReferences": {},
  "source": "// SPDX-License-Identifier: MIT\r\npragma solidity ^0.8.0;\r\n\r\ncontract Healthcare {\r\n    struct Patient {\r\n        string id;\r\n        string name;\r\n        string disease;\r\n        string dob;\r\n        string mobile;\r\n        string email;\r\n        string sbp;\r\n        string sugar;\r\n        string password;\r\n    }\r\n\r\n    struct Doctor {\r\n        string doctorId;\r\n        string name;\r\n        string phone;\r\n        string password;\r\n    }\r\n\r\n    mapping(string => Patient) public patients;\r\n    mapping(string => Doctor) public doctors;\r\n\r\n    string[] public patientIds;\r\n    string[] public doctorIds;\r\n\r\n    uint public patientCount = 0;\r\n    uint public doctorCount = 0;\r\n\r\n    event PatientRegistered(string patientId, string name);\r\n    event DoctorRegistered(string doctorId, string name);\r\n\r\n    // Helper to pad numbers to 3 digits (e.g., 1 -> 001)\r\n    function pad(uint num) private pure returns (string memory) {\r\n        if (num < 10) return string(abi.encodePacked(\"00\", uint2str(num)));\r\n        if (num < 100) return string(abi.encodePacked(\"0\", uint2str(num)));\r\n        return uint2str(num);\r\n    }\r\n\r\n    function uint2str(uint _i) private pure returns (string memory str) {\r\n        if (_i == 0) return \"0\";\r\n        uint j = _i;\r\n        uint len;\r\n        while (j != 0) {\r\n            len++;\r\n            j /= 10;\r\n        }\r\n        bytes memory bstr = new bytes(len);\r\n        uint k = len;\r\n        while (_i != 0) {\r\n            k = k-1;\r\n            uint8 temp = (48 + uint8(_i - _i / 10 * 10));\r\n            bstr[k] = bytes1(temp);\r\n            _i /= 10;\r\n        }\r\n        str = string(bstr);\r\n    }\r\n\r\n    // Register a patient (auto-generate ID)\r\n    function registerPatient(\r\n        string memory _name,\r\n        string memory _disease,\r\n        string memory _dob,\r\n        string memory _mobile,\r\n        string memory _email,\r\n        string memory _sbp,\r\n        string memory _sugar,\r\n        string memory _password\r\n    ) public returns (string memory) {\r\n        patientCount++;\r\n        string memory newId = string(abi.encodePacked(\"P\", pad(patientCount)));\r\n        require(bytes(patients[newId].id).length == 0, \"Patient already registered\");\r\n        patients[newId] = Patient(newId, _name, _disease, _dob, _mobile, _email, _sbp, _sugar, _password);\r\n        patientIds.push(newId);\r\n        emit PatientRegistered(newId, _name);\r\n        return newId;\r\n    }\r\n\r\n    // Register a doctor (frontend supplies regId)\r\n    function registerDoctor(\r\n        string memory _name,\r\n        string memory _regId,\r\n        string memory _phone,\r\n        string memory _password\r\n    ) public returns (string memory) {\r\n        require(bytes(doctors[_regId].doctorId).length == 0, \"Doctor already registered\");\r\n        doctors[_regId] = Doctor(_regId, _name, _phone, _password);\r\n        doctorIds.push(_regId);\r\n        emit DoctorRegistered(_regId, _name);\r\n        return _regId;\r\n    }\r\n\r\n    // Patient login\r\n    function loginPatient(string memory _patientId, string memory _password) public view returns (bool) {\r\n        return (keccak256(bytes(patients[_patientId].password)) == keccak256(bytes(_password)));\r\n    }\r\n\r\n    // Doctor login\r\n    function loginDoctor(string memory _regId, string memory _password) public view returns (bool) {\r\n        return (keccak256(bytes(doctors[_regId].password)) == keccak256(bytes(_password)));\r\n    }\r\n\r\n    // Get a patient by ID (for login/dashboard)\r\n    function getPatientById(string memory _patientId) public view returns (\r\n        string memory id,\r\n        string memory name,\r\n        string memory disease,\r\n        string memory dob,\r\n        string memory mobile,\r\n        string memory email,\r\n        string memory sbp,\r\n        string memory sugar\r\n    ) {\r\n        Patient memory p = patients[_patientId];\r\n        return (p.id, p.name, p.disease, p.dob, p.mobile, p.email, p.sbp, p.sugar);\r\n    }\r\n\r\n    // Get doctor info by regId\r\n    function getDoctorByRegId(string memory _regId) public view returns (\r\n        string memory name,\r\n        string memory regId,\r\n        string memory phone\r\n    ) {\r\n        Doctor memory d = doctors[_regId];\r\n        return (d.name, d.doctorId, d.phone);\r\n    }\r\n}",
  "sourcePath": "C:\\Users\\maste\\OneDrive\\Desktop\\DApp\\healthcareDapp\\contracts\\Healthcare.sol",
  "compiler": {
    "name": "solc",
    "version": "0.8.0+commit.c7dfd78e.Emscripten.clang"
  },
  "schemaVersion": "3.4.16",
  "updatedAt": "2025-07-04T03:03:23.183Z",
  "networkType": "ethereum",
  "devdoc": {
    "kind": "dev",
    "methods": {},
    "version": 1
  },
  "userdoc": {
    "kind": "user",
    "methods": {},
    "version": 1
  }
}