{
  "contractName": "Health",
  "abi": [
    {
      "inputs": [
        {
          "internalType": "address",
          "name": "",
          "type": "address"
        }
      ],
      "name": "doctors",
      "outputs": [
        {
          "internalType": "string",
          "name": "name",
          "type": "string"
        },
        {
          "internalType": "string",
          "name": "doctorId",
          "type": "string"
        },
        {
          "internalType": "string",
          "name": "specialization",
          "type": "string"
        }
      ],
      "stateMutability": "view",
      "type": "function"
    },
    {
      "inputs": [
        {
          "internalType": "address",
          "name": "",
          "type": "address"
        }
      ],
      "name": "patients",
      "outputs": [
        {
          "internalType": "string",
          "name": "name",
          "type": "string"
        },
        {
          "internalType": "uint256",
          "name": "age",
          "type": "uint256"
        },
        {
          "internalType": "string",
          "name": "email",
          "type": "string"
        },
        {
          "internalType": "string",
          "name": "id",
          "type": "string"
        }
      ],
      "stateMutability": "view",
      "type": "function"
    },
    {
      "inputs": [
        {
          "internalType": "string",
          "name": "_name",
          "type": "string"
        },
        {
          "internalType": "uint256",
          "name": "_age",
          "type": "uint256"
        },
        {
          "internalType": "string",
          "name": "_email",
          "type": "string"
        },
        {
          "internalType": "string",
          "name": "_id",
          "type": "string"
        }
      ],
      "name": "registerPatient",
      "outputs": [],
      "stateMutability": "nonpayable",
      "type": "function"
    },
    {
      "inputs": [
        {
          "internalType": "string",
          "name": "_name",
          "type": "string"
        },
        {
          "internalType": "string",
          "name": "_doctorId",
          "type": "string"
        },
        {
          "internalType": "string",
          "name": "_specialization",
          "type": "string"
        }
      ],
      "name": "registerDoctor",
      "outputs": [],
      "stateMutability": "nonpayable",
      "type": "function"
    }
  ],
  "bytecode": "0x608060405234801561001057600080fd5b50610b88806100206000396000f3fe608060405234801561001057600080fd5b506004361061004c5760003560e01c80630869cfbc1461005157806350c7a91214610084578063a9583c22146100a0578063fa2323d2146100d2575b600080fd5b61006b6004803603810190610066919061072f565b6100ee565b60405161007b949392919061092e565b60405180910390f35b61009e60048036038101906100999190610758565b6102b6565b005b6100ba60048036038101906100b5919061072f565b61036f565b6040516100c9939291906108e2565b60405180910390f35b6100ec60048036038101906100e791906107ef565b610531565b005b600060205280600052604060002060009150905080600001805461011190610a83565b80601f016020809104026020016040519081016040528092919081815260200182805461013d90610a83565b801561018a5780601f1061015f5761010080835404028352916020019161018a565b820191906000526020600020905b81548152906001019060200180831161016d57829003601f168201915b5050505050908060010154908060020180546101a590610a83565b80601f01602080910402602001604051908101604052809291908181526020018280546101d190610a83565b801561021e5780601f106101f35761010080835404028352916020019161021e565b820191906000526020600020905b81548152906001019060200180831161020157829003601f168201915b50505050509080600301805461023390610a83565b80601f016020809104026020016040519081016040528092919081815260200182805461025f90610a83565b80156102ac5780601f10610281576101008083540402835291602001916102ac565b820191906000526020600020905b81548152906001019060200180831161028f57829003601f168201915b5050505050905084565b604051806060016040528084815260200183815260200182815250600160003373ffffffffffffffffffffffffffffffffffffffff1673ffffffffffffffffffffffffffffffffffffffff168152602001908152602001600020600082015181600001908051906020019061032c9291906105fa565b5060208201518160010190805190602001906103499291906105fa565b5060408201518160020190805190602001906103669291906105fa565b50905050505050565b600160205280600052604060002060009150905080600001805461039290610a83565b80601f01602080910402602001604051908101604052809291908181526020018280546103be90610a83565b801561040b5780601f106103e05761010080835404028352916020019161040b565b820191906000526020600020905b8154815290600101906020018083116103ee57829003601f168201915b50505050509080600101805461042090610a83565b80601f016020809104026020016040519081016040528092919081815260200182805461044c90610a83565b80156104995780601f1061046e57610100808354040283529160200191610499565b820191906000526020600020905b81548152906001019060200180831161047c57829003601f168201915b5050505050908060020180546104ae90610a83565b80601f01602080910402602001604051908101604052809291908181526020018280546104da90610a83565b80156105275780601f106104fc57610100808354040283529160200191610527565b820191906000526020600020905b81548152906001019060200180831161050a57829003601f168201915b5050505050905083565b6040518060800160405280858152602001848152602001838152602001828152506000803373ffffffffffffffffffffffffffffffffffffffff1673ffffffffffffffffffffffffffffffffffffffff16815260200190815260200160002060008201518160000190805190602001906105ac9291906105fa565b506020820151816001015560408201518160020190805190602001906105d39291906105fa565b5060608201518160030190805190602001906105f09291906105fa565b5090505050505050565b82805461060690610a83565b90600052602060002090601f016020900481019282610628576000855561066f565b82601f1061064157805160ff191683800117855561066f565b8280016001018555821561066f579182015b8281111561066e578251825591602001919060010190610653565b5b50905061067c9190610680565b5090565b5b80821115610699576000816000905550600101610681565b5090565b60006106b06106ab846109b9565b610988565b9050828152602081018484840111156106c857600080fd5b6106d3848285610a41565b509392505050565b6000813590506106ea81610b24565b92915050565b600082601f83011261070157600080fd5b813561071184826020860161069d565b91505092915050565b60008135905061072981610b3b565b92915050565b60006020828403121561074157600080fd5b600061074f848285016106db565b91505092915050565b60008060006060848603121561076d57600080fd5b600084013567ffffffffffffffff81111561078757600080fd5b610793868287016106f0565b935050602084013567ffffffffffffffff8111156107b057600080fd5b6107bc868287016106f0565b925050604084013567ffffffffffffffff8111156107d957600080fd5b6107e5868287016106f0565b9150509250925092565b6000806000806080858703121561080557600080fd5b600085013567ffffffffffffffff81111561081f57600080fd5b61082b878288016106f0565b945050602061083c8782880161071a565b935050604085013567ffffffffffffffff81111561085957600080fd5b610865878288016106f0565b925050606085013567ffffffffffffffff81111561088257600080fd5b61088e878288016106f0565b91505092959194509250565b60006108a5826109e9565b6108af81856109f4565b93506108bf818560208601610a50565b6108c881610b13565b840191505092915050565b6108dc81610a37565b82525050565b600060608201905081810360008301526108fc818661089a565b90508181036020830152610910818561089a565b90508181036040830152610924818461089a565b9050949350505050565b60006080820190508181036000830152610948818761089a565b905061095760208301866108d3565b8181036040830152610969818561089a565b9050818103606083015261097d818461089a565b905095945050505050565b6000604051905081810181811067ffffffffffffffff821117156109af576109ae610ae4565b5b8060405250919050565b600067ffffffffffffffff8211156109d4576109d3610ae4565b5b601f19601f8301169050602081019050919050565b600081519050919050565b600082825260208201905092915050565b6000610a1082610a17565b9050919050565b600073ffffffffffffffffffffffffffffffffffffffff82169050919050565b6000819050919050565b82818337600083830152505050565b60005b83811015610a6e578082015181840152602081019050610a53565b83811115610a7d576000848401525b50505050565b60006002820490506001821680610a9b57607f821691505b60208210811415610aaf57610aae610ab5565b5b50919050565b7f4e487b7100000000000000000000000000000000000000000000000000000000600052602260045260246000fd5b7f4e487b7100000000000000000000000000000000000000000000000000000000600052604160045260246000fd5b6000601f19601f8301169050919050565b610b2d81610a05565b8114610b3857600080fd5b50565b610b4481610a37565b8114610b4f57600080fd5b5056fea2646970667358221220e3246ac7b06a6a37349199b71f07aecdbbbaae69df2b1679c0e7ab1cfa406b6664736f6c63430008000033",
  "immutableReferences": {},
  "source": "// SPDX-License-Identifier: MIT\r\npragma solidity ^0.8.0;\r\n\r\ncontract Health {\r\n    struct Patient {\r\n        string name;\r\n        uint age;\r\n        string email;\r\n        string id;\r\n    }\r\n\r\n    struct Doctor {\r\n        string name;\r\n        string doctorId;\r\n        string specialization;\r\n    }\r\n\r\n    mapping(address => Patient) public patients;\r\n    mapping(address => Doctor) public doctors;\r\n\r\n    function registerPatient(string memory _name, uint _age, string memory _email, string memory _id) public {\r\n        patients[msg.sender] = Patient(_name, _age, _email, _id);\r\n    }\r\n\r\n    function registerDoctor(string memory _name, string memory _doctorId, string memory _specialization) public {\r\n        doctors[msg.sender] = Doctor(_name, _doctorId, _specialization);\r\n    }\r\n}\r\n    \r\n//0x88D402E6a4B5e0450d6181ECAB7137cc010cE037",
  "sourcePath": "C:\\Users\\maste\\OneDrive\\Desktop\\DApp\\healthcareDapp\\contracts\\Healthcare.sol",
  "compiler": {
    "name": "solc",
    "version": "0.8.0+commit.c7dfd78e.Emscripten.clang"
  },
  "schemaVersion": "3.4.16",
  "updatedAt": "2025-06-11T07:26:59.227Z",
  "devdoc": {
    "kind": "dev",
    "methods": {},
    "version": 1
  },
  "userdoc": {
    "kind": "user",
    "methods": {},
    "version": 1
  }
}