{
  "contractName": "Healthcare",
  "abi": [
    {
      "anonymous": false,
      "inputs": [
        {
          "indexed": false,
          "internalType": "uint256",
          "name": "appointmentId",
          "type": "uint256"
        },
        {
          "indexed": false,
          "internalType": "string",
          "name": "patientId",
          "type": "string"
        },
        {
          "indexed": false,
          "internalType": "string",
          "name": "doctorId",
          "type": "string"
        },
        {
          "indexed": false,
          "internalType": "string",
          "name": "date",
          "type": "string"
        }
      ],
      "name": "AppointmentCreated",
      "type": "event"
    },
    {
      "anonymous": false,
      "inputs": [
        {
          "indexed": false,
          "internalType": "string",
          "name": "doctorId",
          "type": "string"
        },
        {
          "indexed": false,
          "internalType": "string",
          "name": "name",
          "type": "string"
        }
      ],
      "name": "DoctorRegistered",
      "type": "event"
    },
    {
      "anonymous": false,
      "inputs": [
        {
          "indexed": false,
          "internalType": "string",
          "name": "chatKey",
          "type": "string"
        },
        {
          "indexed": false,
          "internalType": "string",
          "name": "senderId",
          "type": "string"
        },
        {
          "indexed": false,
          "internalType": "string",
          "name": "senderType",
          "type": "string"
        },
        {
          "indexed": false,
          "internalType": "uint256",
          "name": "timestamp",
          "type": "uint256"
        }
      ],
      "name": "MessageSent",
      "type": "event"
    },
    {
      "anonymous": false,
      "inputs": [
        {
          "indexed": false,
          "internalType": "string",
          "name": "patientId",
          "type": "string"
        },
        {
          "indexed": false,
          "internalType": "string",
          "name": "name",
          "type": "string"
        }
      ],
      "name": "PatientRegistered",
      "type": "event"
    },
    {
      "inputs": [],
      "name": "appointmentCount",
      "outputs": [
        {
          "internalType": "uint256",
          "name": "",
          "type": "uint256"
        }
      ],
      "stateMutability": "view",
      "type": "function",
      "constant": true
    },
    {
      "inputs": [
        {
          "internalType": "uint256",
          "name": "",
          "type": "uint256"
        }
      ],
      "name": "appointmentIds",
      "outputs": [
        {
          "internalType": "uint256",
          "name": "",
          "type": "uint256"
        }
      ],
      "stateMutability": "view",
      "type": "function",
      "constant": true
    },
    {
      "inputs": [
        {
          "internalType": "uint256",
          "name": "",
          "type": "uint256"
        }
      ],
      "name": "appointments",
      "outputs": [
        {
          "internalType": "uint256",
          "name": "id",
          "type": "uint256"
        },
        {
          "internalType": "string",
          "name": "patientId",
          "type": "string"
        },
        {
          "internalType": "string",
          "name": "patientName",
          "type": "string"
        },
        {
          "internalType": "string",
          "name": "doctorId",
          "type": "string"
        },
        {
          "internalType": "string",
          "name": "doctorName",
          "type": "string"
        },
        {
          "internalType": "string",
          "name": "date",
          "type": "string"
        },
        {
          "internalType": "string",
          "name": "time",
          "type": "string"
        },
        {
          "internalType": "string",
          "name": "reason",
          "type": "string"
        },
        {
          "internalType": "string",
          "name": "status",
          "type": "string"
        },
        {
          "internalType": "uint256",
          "name": "createdAt",
          "type": "uint256"
        },
        {
          "internalType": "bool",
          "name": "fromRequest",
          "type": "bool"
        }
      ],
      "stateMutability": "view",
      "type": "function",
      "constant": true
    },
    {
      "inputs": [
        {
          "internalType": "string",
          "name": "",
          "type": "string"
        },
        {
          "internalType": "uint256",
          "name": "",
          "type": "uint256"
        }
      ],
      "name": "chatHistory",
      "outputs": [
        {
          "internalType": "uint256",
          "name": "id",
          "type": "uint256"
        },
        {
          "internalType": "string",
          "name": "senderId",
          "type": "string"
        },
        {
          "internalType": "string",
          "name": "senderName",
          "type": "string"
        },
        {
          "internalType": "string",
          "name": "senderType",
          "type": "string"
        },
        {
          "internalType": "string",
          "name": "message",
          "type": "string"
        },
        {
          "internalType": "string",
          "name": "encryptedMessage",
          "type": "string"
        },
        {
          "internalType": "uint256",
          "name": "timestamp",
          "type": "uint256"
        },
        {
          "internalType": "bool",
          "name": "isAppointmentInfo",
          "type": "bool"
        },
        {
          "internalType": "string",
          "name": "appointmentData",
          "type": "string"
        }
      ],
      "stateMutability": "view",
      "type": "function",
      "constant": true
    },
    {
      "inputs": [],
      "name": "doctorCount",
      "outputs": [
        {
          "internalType": "uint256",
          "name": "",
          "type": "uint256"
        }
      ],
      "stateMutability": "view",
      "type": "function",
      "constant": true
    },
    {
      "inputs": [
        {
          "internalType": "uint256",
          "name": "",
          "type": "uint256"
        }
      ],
      "name": "doctorIds",
      "outputs": [
        {
          "internalType": "string",
          "name": "",
          "type": "string"
        }
      ],
      "stateMutability": "view",
      "type": "function",
      "constant": true
    },
    {
      "inputs": [
        {
          "internalType": "string",
          "name": "",
          "type": "string"
        }
      ],
      "name": "doctors",
      "outputs": [
        {
          "internalType": "string",
          "name": "doctorId",
          "type": "string"
        },
        {
          "internalType": "string",
          "name": "name",
          "type": "string"
        },
        {
          "internalType": "string",
          "name": "phone",
          "type": "string"
        },
        {
          "internalType": "string",
          "name": "password",
          "type": "string"
        }
      ],
      "stateMutability": "view",
      "type": "function",
      "constant": true
    },
    {
      "inputs": [],
      "name": "messageCount",
      "outputs": [
        {
          "internalType": "uint256",
          "name": "",
          "type": "uint256"
        }
      ],
      "stateMutability": "view",
      "type": "function",
      "constant": true
    },
    {
      "inputs": [],
      "name": "patientCount",
      "outputs": [
        {
          "internalType": "uint256",
          "name": "",
          "type": "uint256"
        }
      ],
      "stateMutability": "view",
      "type": "function",
      "constant": true
    },
    {
      "inputs": [
        {
          "internalType": "uint256",
          "name": "",
          "type": "uint256"
        }
      ],
      "name": "patientIds",
      "outputs": [
        {
          "internalType": "string",
          "name": "",
          "type": "string"
        }
      ],
      "stateMutability": "view",
      "type": "function",
      "constant": true
    },
    {
      "inputs": [
        {
          "internalType": "string",
          "name": "",
          "type": "string"
        }
      ],
      "name": "patients",
      "outputs": [
        {
          "internalType": "string",
          "name": "id",
          "type": "string"
        },
        {
          "internalType": "string",
          "name": "name",
          "type": "string"
        },
        {
          "internalType": "string",
          "name": "disease",
          "type": "string"
        },
        {
          "internalType": "string",
          "name": "dob",
          "type": "string"
        },
        {
          "internalType": "string",
          "name": "mobile",
          "type": "string"
        },
        {
          "internalType": "string",
          "name": "email",
          "type": "string"
        },
        {
          "internalType": "string",
          "name": "sbp",
          "type": "string"
        },
        {
          "internalType": "string",
          "name": "sugar",
          "type": "string"
        },
        {
          "internalType": "string",
          "name": "password",
          "type": "string"
        }
      ],
      "stateMutability": "view",
      "type": "function",
      "constant": true
    },
    {
      "inputs": [
        {
          "internalType": "string",
          "name": "_name",
          "type": "string"
        },
        {
          "internalType": "string",
          "name": "_disease",
          "type": "string"
        },
        {
          "internalType": "string",
          "name": "_dob",
          "type": "string"
        },
        {
          "internalType": "string",
          "name": "_mobile",
          "type": "string"
        },
        {
          "internalType": "string",
          "name": "_email",
          "type": "string"
        },
        {
          "internalType": "string",
          "name": "_sbp",
          "type": "string"
        },
        {
          "internalType": "string",
          "name": "_sugar",
          "type": "string"
        },
        {
          "internalType": "string",
          "name": "_password",
          "type": "string"
        }
      ],
      "name": "registerPatient",
      "outputs": [
        {
          "internalType": "string",
          "name": "",
          "type": "string"
        }
      ],
      "stateMutability": "nonpayable",
      "type": "function"
    },
    {
      "inputs": [
        {
          "internalType": "string",
          "name": "_name",
          "type": "string"
        },
        {
          "internalType": "string",
          "name": "_regId",
          "type": "string"
        },
        {
          "internalType": "string",
          "name": "_phone",
          "type": "string"
        },
        {
          "internalType": "string",
          "name": "_password",
          "type": "string"
        }
      ],
      "name": "registerDoctor",
      "outputs": [
        {
          "internalType": "string",
          "name": "",
          "type": "string"
        }
      ],
      "stateMutability": "nonpayable",
      "type": "function"
    },
    {
      "inputs": [
        {
          "internalType": "string",
          "name": "_patientId",
          "type": "string"
        },
        {
          "internalType": "string",
          "name": "_password",
          "type": "string"
        }
      ],
      "name": "loginPatient",
      "outputs": [
        {
          "internalType": "bool",
          "name": "",
          "type": "bool"
        }
      ],
      "stateMutability": "view",
      "type": "function",
      "constant": true
    },
    {
      "inputs": [
        {
          "internalType": "string",
          "name": "_regId",
          "type": "string"
        },
        {
          "internalType": "string",
          "name": "_password",
          "type": "string"
        }
      ],
      "name": "loginDoctor",
      "outputs": [
        {
          "internalType": "bool",
          "name": "",
          "type": "bool"
        }
      ],
      "stateMutability": "view",
      "type": "function",
      "constant": true
    },
    {
      "inputs": [
        {
          "internalType": "string",
          "name": "_patientId",
          "type": "string"
        }
      ],
      "name": "getPatientById",
      "outputs": [
        {
          "internalType": "string",
          "name": "id",
          "type": "string"
        },
        {
          "internalType": "string",
          "name": "name",
          "type": "string"
        },
        {
          "internalType": "string",
          "name": "disease",
          "type": "string"
        },
        {
          "internalType": "string",
          "name": "dob",
          "type": "string"
        },
        {
          "internalType": "string",
          "name": "mobile",
          "type": "string"
        },
        {
          "internalType": "string",
          "name": "email",
          "type": "string"
        },
        {
          "internalType": "string",
          "name": "sbp",
          "type": "string"
        },
        {
          "internalType": "string",
          "name": "sugar",
          "type": "string"
        }
      ],
      "stateMutability": "view",
      "type": "function",
      "constant": true
    },
    {
      "inputs": [
        {
          "internalType": "string",
          "name": "_regId",
          "type": "string"
        }
      ],
      "name": "getDoctorByRegId",
      "outputs": [
        {
          "internalType": "string",
          "name": "name",
          "type": "string"
        },
        {
          "internalType": "string",
          "name": "regId",
          "type": "string"
        },
        {
          "internalType": "string",
          "name": "phone",
          "type": "string"
        }
      ],
      "stateMutability": "view",
      "type": "function",
      "constant": true
    },
    {
      "inputs": [
        {
          "internalType": "string",
          "name": "_patientId",
          "type": "string"
        },
        {
          "internalType": "string",
          "name": "_doctorId",
          "type": "string"
        },
        {
          "internalType": "string",
          "name": "_senderId",
          "type": "string"
        },
        {
          "internalType": "string",
          "name": "_senderName",
          "type": "string"
        },
        {
          "internalType": "string",
          "name": "_senderType",
          "type": "string"
        },
        {
          "internalType": "string",
          "name": "_message",
          "type": "string"
        },
        {
          "internalType": "string",
          "name": "_encryptedMessage",
          "type": "string"
        },
        {
          "internalType": "bool",
          "name": "_isAppointmentInfo",
          "type": "bool"
        },
        {
          "internalType": "string",
          "name": "_appointmentData",
          "type": "string"
        }
      ],
      "name": "sendChatMessage",
      "outputs": [
        {
          "internalType": "uint256",
          "name": "",
          "type": "uint256"
        }
      ],
      "stateMutability": "nonpayable",
      "type": "function"
    },
    {
      "inputs": [
        {
          "internalType": "string",
          "name": "_patientId",
          "type": "string"
        },
        {
          "internalType": "string",
          "name": "_doctorId",
          "type": "string"
        }
      ],
      "name": "getChatMessages",
      "outputs": [
        {
          "components": [
            {
              "internalType": "uint256",
              "name": "id",
              "type": "uint256"
            },
            {
              "internalType": "string",
              "name": "senderId",
              "type": "string"
            },
            {
              "internalType": "string",
              "name": "senderName",
              "type": "string"
            },
            {
              "internalType": "string",
              "name": "senderType",
              "type": "string"
            },
            {
              "internalType": "string",
              "name": "message",
              "type": "string"
            },
            {
              "internalType": "string",
              "name": "encryptedMessage",
              "type": "string"
            },
            {
              "internalType": "uint256",
              "name": "timestamp",
              "type": "uint256"
            },
            {
              "internalType": "bool",
              "name": "isAppointmentInfo",
              "type": "bool"
            },
            {
              "internalType": "string",
              "name": "appointmentData",
              "type": "string"
            }
          ],
          "internalType": "struct Healthcare.ChatMessage[]",
          "name": "",
          "type": "tuple[]"
        }
      ],
      "stateMutability": "view",
      "type": "function",
      "constant": true
    },
    {
      "inputs": [
        {
          "internalType": "string",
          "name": "_patientId",
          "type": "string"
        },
        {
          "internalType": "string",
          "name": "_doctorId",
          "type": "string"
        }
      ],
      "name": "getChatMessageCount",
      "outputs": [
        {
          "internalType": "uint256",
          "name": "",
          "type": "uint256"
        }
      ],
      "stateMutability": "view",
      "type": "function",
      "constant": true
    },
    {
      "inputs": [
        {
          "internalType": "string",
          "name": "_patientId",
          "type": "string"
        },
        {
          "internalType": "string",
          "name": "_patientName",
          "type": "string"
        },
        {
          "internalType": "string",
          "name": "_doctorId",
          "type": "string"
        },
        {
          "internalType": "string",
          "name": "_doctorName",
          "type": "string"
        },
        {
          "internalType": "string",
          "name": "_date",
          "type": "string"
        },
        {
          "internalType": "string",
          "name": "_time",
          "type": "string"
        },
        {
          "internalType": "string",
          "name": "_reason",
          "type": "string"
        },
        {
          "internalType": "string",
          "name": "_status",
          "type": "string"
        },
        {
          "internalType": "bool",
          "name": "_fromRequest",
          "type": "bool"
        }
      ],
      "name": "createAppointment",
      "outputs": [
        {
          "internalType": "uint256",
          "name": "",
          "type": "uint256"
        }
      ],
      "stateMutability": "nonpayable",
      "type": "function"
    },
    {
      "inputs": [
        {
          "internalType": "string",
          "name": "_patientId",
          "type": "string"
        }
      ],
      "name": "getPatientAppointments",
      "outputs": [
        {
          "internalType": "uint256[]",
          "name": "",
          "type": "uint256[]"
        }
      ],
      "stateMutability": "view",
      "type": "function",
      "constant": true
    },
    {
      "inputs": [
        {
          "internalType": "string",
          "name": "_doctorId",
          "type": "string"
        }
      ],
      "name": "getDoctorAppointments",
      "outputs": [
        {
          "internalType": "uint256[]",
          "name": "",
          "type": "uint256[]"
        }
      ],
      "stateMutability": "view",
      "type": "function",
      "constant": true
    },
    {
      "inputs": [
        {
          "internalType": "uint256",
          "name": "_appointmentId",
          "type": "uint256"
        }
      ],
      "name": "getAppointmentById",
      "outputs": [
        {
          "internalType": "uint256",
          "name": "id",
          "type": "uint256"
        },
        {
          "internalType": "string",
          "name": "patientId",
          "type": "string"
        },
        {
          "internalType": "string",
          "name": "patientName",
          "type": "string"
        },
        {
          "internalType": "string",
          "name": "doctorId",
          "type": "string"
        },
        {
          "internalType": "string",
          "name": "doctorName",
          "type": "string"
        },
        {
          "internalType": "string",
          "name": "date",
          "type": "string"
        },
        {
          "internalType": "string",
          "name": "time",
          "type": "string"
        },
        {
          "internalType": "string",
          "name": "reason",
          "type": "string"
        },
        {
          "internalType": "string",
          "name": "status",
          "type": "string"
        },
        {
          "internalType": "uint256",
          "name": "createdAt",
          "type": "uint256"
        },
        {
          "internalType": "bool",
          "name": "fromRequest",
          "type": "bool"
        }
      ],
      "stateMutability": "view",
      "type": "function",
      "constant": true
    }
  ],
  "bytecode": "0x60806040526000600755600060085560006009556000600a5534801561002457600080fd5b50615060806100346000396000f3fe608060405234801561001057600080fd5b50600436106101585760003560e01c80639790dd4a116100c3578063c6009d841161007c578063c6009d84146104a8578063c86611e9146104e0578063ceef894014610510578063d0155f2e14610547578063e747428b14610577578063eebc3fb2146105a757610158565b80639790dd4a14610388578063997f4a44146103c25780639b0dbbc0146103f25780639b290adb14610422578063a0303c411461045a578063a95be5ee1461047857610158565b8063412a317e11610115578063412a317e146102785780636021bafd146102a857806360f01dc6146102da578063776dac471461030a57806378522bc41461033a5780637ed060171461035857610158565b806305c35ce51461015d57806312dc90131461019057806315802c6a146101ca57806329cf54a3146101fa57806333a8587f1461022a5780633dbcc8d11461025a575b600080fd5b61017760048036038101906101729190613aab565b6105c5565b60405161018794939291906147a2565b60405180910390f35b6101aa60048036038101906101a591906140ed565b61082b565b6040516101c19b9a99989796959493929190614a94565b60405180910390f35b6101e460048036038101906101df91906140ed565b610cd2565b6040516101f191906146fd565b60405180910390f35b610214600480360381019061020f9190613da1565b610d7e565b60405161022191906146fd565b60405180910390f35b610244600480360381019061023f9190613b58565b611021565b60405161025191906146fd565b60405180910390f35b6102626111e1565b60405161026f9190614a1f565b60405180910390f35b610292600480360381019061028d9190613f13565b6111e7565b60405161029f9190614a1f565b60405180910390f35b6102c260048036038101906102bd9190613aab565b61140a565b6040516102d193929190614756565b60405180910390f35b6102f460048036038101906102ef9190613c1b565b6116a1565b6040516103019190614a1f565b60405180910390f35b610324600480360381019061031f9190613aab565b6118a7565b60405161033191906146c0565b60405180910390f35b610342611af4565b60405161034f9190614a1f565b60405180910390f35b610372600480360381019061036d9190613aec565b611afa565b60405161037f9190614a1f565b60405180910390f35b6103a2600480360381019061039d91906140ed565b611b4c565b6040516103b99b9a99989796959493929190614a94565b60405180910390f35b6103dc60048036038101906103d791906140ed565b61209f565b6040516103e991906146fd565b60405180910390f35b61040c60048036038101906104079190613aab565b61214b565b60405161041991906146c0565b60405180910390f35b61043c60048036038101906104379190614099565b612398565b60405161045199989796959493929190614b77565b60405180910390f35b610462612756565b60405161046f9190614a1f565b60405180910390f35b610492600480360381019061048d9190613aec565b61275c565b60405161049f919061469e565b60405180910390f35b6104c260048036038101906104bd9190613aab565b612b9d565b6040516104d7999897969594939291906148b9565b60405180910390f35b6104fa60048036038101906104f59190613aec565b6130c9565b60405161050791906146e2565b60405180910390f35b61052a60048036038101906105259190613aab565b613112565b60405161053e989796959493929190614803565b60405180910390f35b610561600480360381019061055c9190613aec565b6136b1565b60405161056e91906146e2565b60405180910390f35b610591600480360381019061058c91906140ed565b6136fa565b60405161059e9190614a1f565b60405180910390f35b6105af61371e565b6040516105bc9190614a1f565b60405180910390f35b6001818051602081018201805184825260208301602085012081835280955050505050506000915090508060000180546105fe90614eb4565b80601f016020809104026020016040519081016040528092919081815260200182805461062a90614eb4565b80156106775780601f1061064c57610100808354040283529160200191610677565b820191906000526020600020905b81548152906001019060200180831161065a57829003601f168201915b50505050509080600101805461068c90614eb4565b80601f01602080910402602001604051908101604052809291908181526020018280546106b890614eb4565b80156107055780601f106106da57610100808354040283529160200191610705565b820191906000526020600020905b8154815290600101906020018083116106e857829003601f168201915b50505050509080600201805461071a90614eb4565b80601f016020809104026020016040519081016040528092919081815260200182805461074690614eb4565b80156107935780601f1061076857610100808354040283529160200191610793565b820191906000526020600020905b81548152906001019060200180831161077657829003601f168201915b5050505050908060030180546107a890614eb4565b80601f01602080910402602001604051908101604052809291908181526020018280546107d490614eb4565b80156108215780601f106107f657610100808354040283529160200191610821565b820191906000526020600020905b81548152906001019060200180831161080457829003601f168201915b5050505050905084565b600360205280600052604060002060009150905080600001549080600101805461085490614eb4565b80601f016020809104026020016040519081016040528092919081815260200182805461088090614eb4565b80156108cd5780601f106108a2576101008083540402835291602001916108cd565b820191906000526020600020905b8154815290600101906020018083116108b057829003601f168201915b5050505050908060020180546108e290614eb4565b80601f016020809104026020016040519081016040528092919081815260200182805461090e90614eb4565b801561095b5780601f106109305761010080835404028352916020019161095b565b820191906000526020600020905b81548152906001019060200180831161093e57829003601f168201915b50505050509080600301805461097090614eb4565b80601f016020809104026020016040519081016040528092919081815260200182805461099c90614eb4565b80156109e95780601f106109be576101008083540402835291602001916109e9565b820191906000526020600020905b8154815290600101906020018083116109cc57829003601f168201915b5050505050908060040180546109fe90614eb4565b80601f0160208091040260200160405190810160405280929190818152602001828054610a2a90614eb4565b8015610a775780601f10610a4c57610100808354040283529160200191610a77565b820191906000526020600020905b815481529060010190602001808311610a5a57829003601f168201915b505050505090806005018054610a8c90614eb4565b80601f0160208091040260200160405190810160405280929190818152602001828054610ab890614eb4565b8015610b055780601f10610ada57610100808354040283529160200191610b05565b820191906000526020600020905b815481529060010190602001808311610ae857829003601f168201915b505050505090806006018054610b1a90614eb4565b80601f0160208091040260200160405190810160405280929190818152602001828054610b4690614eb4565b8015610b935780601f10610b6857610100808354040283529160200191610b93565b820191906000526020600020905b815481529060010190602001808311610b7657829003601f168201915b505050505090806007018054610ba890614eb4565b80601f0160208091040260200160405190810160405280929190818152602001828054610bd490614eb4565b8015610c215780601f10610bf657610100808354040283529160200191610c21565b820191906000526020600020905b815481529060010190602001808311610c0457829003601f168201915b505050505090806008018054610c3690614eb4565b80601f0160208091040260200160405190810160405280929190818152602001828054610c6290614eb4565b8015610caf5780601f10610c8457610100808354040283529160200191610caf565b820191906000526020600020905b815481529060010190602001808311610c9257829003601f168201915b50505050509080600901549080600a0160009054906101000a900460ff1690508b565b60048181548110610ce257600080fd5b906000526020600020016000915090508054610cfd90614eb4565b80601f0160208091040260200160405190810160405280929190818152602001828054610d2990614eb4565b8015610d765780601f10610d4b57610100808354040283529160200191610d76565b820191906000526020600020905b815481529060010190602001808311610d5957829003601f168201915b505050505081565b606060076000815480929190610d9390614ee6565b91905055506000610da5600754613724565b604051602001610db5919061465a565b604051602081830303815290604052905060008082604051610dd791906145f2565b90815260200160405180910390206000018054610df390614eb4565b905014610e35576040517f08c379a0000000000000000000000000000000000000000000000000000000008152600401610e2c906149df565b60405180910390fd5b6040518061012001604052808281526020018b81526020018a815260200189815260200188815260200187815260200186815260200185815260200184815250600082604051610e8591906145f2565b90815260200160405180910390206000820151816000019080519060200190610eaf929190613976565b506020820151816001019080519060200190610ecc929190613976565b506040820151816002019080519060200190610ee9929190613976565b506060820151816003019080519060200190610f06929190613976565b506080820151816004019080519060200190610f23929190613976565b5060a0820151816005019080519060200190610f40929190613976565b5060c0820151816006019080519060200190610f5d929190613976565b5060e0820151816007019080519060200190610f7a929190613976565b50610100820151816008019080519060200190610f98929190613976565b50905050600481908060018154018082558091505060019003906000526020600020016000909190919091509080519060200190610fd7929190613976565b507ff57ecee040edfbd184404d12d5f2f7343575add2ba648066a9a501fa19bf3a27818b60405161100992919061471f565b60405180910390a18091505098975050505050505050565b6060600060018560405161103591906145f2565b9081526020016040518091039020600001805461105190614eb4565b905014611093576040517f08c379a000000000000000000000000000000000000000000000000000000000815260040161108a906149ff565b60405180910390fd5b6040518060800160405280858152602001868152602001848152602001838152506001856040516110c491906145f2565b908152602001604051809103902060008201518160000190805190602001906110ee929190613976565b50602082015181600101908051906020019061110b929190613976565b506040820151816002019080519060200190611128929190613976565b506060820151816003019080519060200190611145929190613976565b50905050600584908060018154018082558091505060019003906000526020600020016000909190919091509080519060200190611184929190613976565b506008600081548092919061119890614ee6565b91905055507fcd699b2b5581050eaf5ec3b85c200f9b500741fb22238e0234ccd63b398a8e8b84866040516111ce92919061471f565b60405180910390a1839050949350505050565b600a5481565b6000600960008154809291906111fc90614ee6565b9190505550600060405180610160016040528060095481526020018c81526020018b81526020018a8152602001898152602001888152602001878152602001868152602001858152602001428152602001841515815250905080600360006009548152602001908152602001600020600082015181600001556020820151816001019080519060200190611291929190613976565b5060408201518160020190805190602001906112ae929190613976565b5060608201518160030190805190602001906112cb929190613976565b5060808201518160040190805190602001906112e8929190613976565b5060a0820151816005019080519060200190611305929190613976565b5060c0820151816006019080519060200190611322929190613976565b5060e082015181600701908051906020019061133f929190613976565b5061010082015181600801908051906020019061135d929190613976565b50610120820151816009015561014082015181600a0160006101000a81548160ff021916908315150217905550905050600660095490806001815401808255809150506001900390600052602060002001600090919091909150557f034c2fad8a6de3581373045476e290f91a2bd966ed9ebbe398ae60fb112e35a66009548c8b8a6040516113ef9493929190614a3a565b60405180910390a16009549150509998505050505050505050565b6060806060600060018560405161142191906145f2565b908152602001604051809103902060405180608001604052908160008201805461144a90614eb4565b80601f016020809104026020016040519081016040528092919081815260200182805461147690614eb4565b80156114c35780601f10611498576101008083540402835291602001916114c3565b820191906000526020600020905b8154815290600101906020018083116114a657829003601f168201915b505050505081526020016001820180546114dc90614eb4565b80601f016020809104026020016040519081016040528092919081815260200182805461150890614eb4565b80156115555780601f1061152a57610100808354040283529160200191611555565b820191906000526020600020905b81548152906001019060200180831161153857829003601f168201915b5050505050815260200160028201805461156e90614eb4565b80601f016020809104026020016040519081016040528092919081815260200182805461159a90614eb4565b80156115e75780601f106115bc576101008083540402835291602001916115e7565b820191906000526020600020905b8154815290600101906020018083116115ca57829003601f168201915b5050505050815260200160038201805461160090614eb4565b80601f016020809104026020016040519081016040528092919081815260200182805461162c90614eb4565b80156116795780601f1061164e57610100808354040283529160200191611679565b820191906000526020600020905b81548152906001019060200180831161165c57829003601f168201915b5050505050815250509050806020015181600001518260400151935093509350509193909250565b6000600a60008154809291906116b690614ee6565b919050555060008a8a6040516020016116d0929190614609565b60405160208183030381529060405290506000604051806101200160405280600a5481526020018b81526020018a8152602001898152602001888152602001878152602001428152602001861515815260200185815250905060028260405161173991906145f2565b9081526020016040518091039020819080600181540180825580915050600190039060005260206000209060090201600090919091909150600082015181600001556020820151816001019080519060200190611797929190613976565b5060408201518160020190805190602001906117b4929190613976565b5060608201518160030190805190602001906117d1929190613976565b5060808201518160040190805190602001906117ee929190613976565b5060a082015181600501908051906020019061180b929190613976565b5060c0820151816006015560e08201518160070160006101000a81548160ff021916908315150217905550610100820151816008019080519060200190611853929190613976565b5050507f200deb8b3290a27dc66b22678c86aea858eba8208e869bacf3c5b20ab1c13451828b8a4260405161188b9493929190614985565b60405180910390a1600a54925050509998505050505050505050565b6060600060095467ffffffffffffffff8111156118ed577f4e487b7100000000000000000000000000000000000000000000000000000000600052604160045260246000fd5b60405190808252806020026020018201604052801561191b5781602001602082028036833780820191505090505b509050600080600190505b60095481116119d05784805190602001206003600083815260200190815260200160002060010160405161195a91906145db565b604051809103902014156119bd57808383815181106119a2577f4e487b7100000000000000000000000000000000000000000000000000000000600052603260045260246000fd5b60200260200101818152505081806119b990614ee6565b9250505b80806119c890614ee6565b915050611926565b5060008167ffffffffffffffff811115611a13577f4e487b7100000000000000000000000000000000000000000000000000000000600052604160045260246000fd5b604051908082528060200260200182016040528015611a415781602001602082028036833780820191505090505b50905060005b82811015611ae857838181518110611a88577f4e487b7100000000000000000000000000000000000000000000000000000000600052603260045260246000fd5b6020026020010151828281518110611ac9577f4e487b7100000000000000000000000000000000000000000000000000000000600052603260045260246000fd5b6020026020010181815250508080611ae090614ee6565b915050611a47565b50809350505050919050565b60085481565b6000808383604051602001611b10929190614609565b6040516020818303038152906040529050600281604051611b3191906145f2565b90815260200160405180910390208054905091505092915050565b60006060806060806060806060806000806000600360008e81526020019081526020016000206040518061016001604052908160008201548152602001600182018054611b9890614eb4565b80601f0160208091040260200160405190810160405280929190818152602001828054611bc490614eb4565b8015611c115780601f10611be657610100808354040283529160200191611c11565b820191906000526020600020905b815481529060010190602001808311611bf457829003601f168201915b50505050508152602001600282018054611c2a90614eb4565b80601f0160208091040260200160405190810160405280929190818152602001828054611c5690614eb4565b8015611ca35780601f10611c7857610100808354040283529160200191611ca3565b820191906000526020600020905b815481529060010190602001808311611c8657829003601f168201915b50505050508152602001600382018054611cbc90614eb4565b80601f0160208091040260200160405190810160405280929190818152602001828054611ce890614eb4565b8015611d355780601f10611d0a57610100808354040283529160200191611d35565b820191906000526020600020905b815481529060010190602001808311611d1857829003601f168201915b50505050508152602001600482018054611d4e90614eb4565b80601f0160208091040260200160405190810160405280929190818152602001828054611d7a90614eb4565b8015611dc75780601f10611d9c57610100808354040283529160200191611dc7565b820191906000526020600020905b815481529060010190602001808311611daa57829003601f168201915b50505050508152602001600582018054611de090614eb4565b80601f0160208091040260200160405190810160405280929190818152602001828054611e0c90614eb4565b8015611e595780601f10611e2e57610100808354040283529160200191611e59565b820191906000526020600020905b815481529060010190602001808311611e3c57829003601f168201915b50505050508152602001600682018054611e7290614eb4565b80601f0160208091040260200160405190810160405280929190818152602001828054611e9e90614eb4565b8015611eeb5780601f10611ec057610100808354040283529160200191611eeb565b820191906000526020600020905b815481529060010190602001808311611ece57829003601f168201915b50505050508152602001600782018054611f0490614eb4565b80601f0160208091040260200160405190810160405280929190818152602001828054611f3090614eb4565b8015611f7d5780601f10611f5257610100808354040283529160200191611f7d565b820191906000526020600020905b815481529060010190602001808311611f6057829003601f168201915b50505050508152602001600882018054611f9690614eb4565b80601f0160208091040260200160405190810160405280929190818152602001828054611fc290614eb4565b801561200f5780601f10611fe45761010080835404028352916020019161200f565b820191906000526020600020905b815481529060010190602001808311611ff257829003601f168201915b5050505050815260200160098201548152602001600a820160009054906101000a900460ff1615151515815250509050806000015181602001518260400151836060015184608001518560a001518660c001518760e001518861010001518961012001518a61014001519b509b509b509b509b509b509b509b509b509b509b505091939597999b90929496989a50565b600581815481106120af57600080fd5b9060005260206000200160009150905080546120ca90614eb4565b80601f01602080910402602001604051908101604052809291908181526020018280546120f690614eb4565b80156121435780601f1061211857610100808354040283529160200191612143565b820191906000526020600020905b81548152906001019060200180831161212657829003601f168201915b505050505081565b6060600060095467ffffffffffffffff811115612191577f4e487b7100000000000000000000000000000000000000000000000000000000600052604160045260246000fd5b6040519080825280602002602001820160405280156121bf5781602001602082028036833780820191505090505b509050600080600190505b6009548111612274578480519060200120600360008381526020019081526020016000206003016040516121fe91906145db565b604051809103902014156122615780838381518110612246577f4e487b7100000000000000000000000000000000000000000000000000000000600052603260045260246000fd5b602002602001018181525050818061225d90614ee6565b9250505b808061226c90614ee6565b9150506121ca565b5060008167ffffffffffffffff8111156122b7577f4e487b7100000000000000000000000000000000000000000000000000000000600052604160045260246000fd5b6040519080825280602002602001820160405280156122e55781602001602082028036833780820191505090505b50905060005b8281101561238c5783818151811061232c577f4e487b7100000000000000000000000000000000000000000000000000000000600052603260045260246000fd5b602002602001015182828151811061236d577f4e487b7100000000000000000000000000000000000000000000000000000000600052603260045260246000fd5b602002602001018181525050808061238490614ee6565b9150506122eb565b50809350505050919050565b60028280516020810182018051848252602083016020850120818352809550505050505081815481106123ca57600080fd5b9060005260206000209060090201600091509150508060000154908060010180546123f490614eb4565b80601f016020809104026020016040519081016040528092919081815260200182805461242090614eb4565b801561246d5780601f106124425761010080835404028352916020019161246d565b820191906000526020600020905b81548152906001019060200180831161245057829003601f168201915b50505050509080600201805461248290614eb4565b80601f01602080910402602001604051908101604052809291908181526020018280546124ae90614eb4565b80156124fb5780601f106124d0576101008083540402835291602001916124fb565b820191906000526020600020905b8154815290600101906020018083116124de57829003601f168201915b50505050509080600301805461251090614eb4565b80601f016020809104026020016040519081016040528092919081815260200182805461253c90614eb4565b80156125895780601f1061255e57610100808354040283529160200191612589565b820191906000526020600020905b81548152906001019060200180831161256c57829003601f168201915b50505050509080600401805461259e90614eb4565b80601f01602080910402602001604051908101604052809291908181526020018280546125ca90614eb4565b80156126175780601f106125ec57610100808354040283529160200191612617565b820191906000526020600020905b8154815290600101906020018083116125fa57829003601f168201915b50505050509080600501805461262c90614eb4565b80601f016020809104026020016040519081016040528092919081815260200182805461265890614eb4565b80156126a55780601f1061267a576101008083540402835291602001916126a5565b820191906000526020600020905b81548152906001019060200180831161268857829003601f168201915b5050505050908060060154908060070160009054906101000a900460ff16908060080180546126d390614eb4565b80601f01602080910402602001604051908101604052809291908181526020018280546126ff90614eb4565b801561274c5780601f106127215761010080835404028352916020019161274c565b820191906000526020600020905b81548152906001019060200180831161272f57829003601f168201915b5050505050905089565b60075481565b606060008383604051602001612773929190614609565b604051602081830303815290604052905060028160405161279491906145f2565b9081526020016040518091039020805480602002602001604051908101604052809291908181526020016000905b82821015612b905783829060005260206000209060090201604051806101200160405290816000820154815260200160018201805461280090614eb4565b80601f016020809104026020016040519081016040528092919081815260200182805461282c90614eb4565b80156128795780601f1061284e57610100808354040283529160200191612879565b820191906000526020600020905b81548152906001019060200180831161285c57829003601f168201915b5050505050815260200160028201805461289290614eb4565b80601f01602080910402602001604051908101604052809291908181526020018280546128be90614eb4565b801561290b5780601f106128e05761010080835404028352916020019161290b565b820191906000526020600020905b8154815290600101906020018083116128ee57829003601f168201915b5050505050815260200160038201805461292490614eb4565b80601f016020809104026020016040519081016040528092919081815260200182805461295090614eb4565b801561299d5780601f106129725761010080835404028352916020019161299d565b820191906000526020600020905b81548152906001019060200180831161298057829003601f168201915b505050505081526020016004820180546129b690614eb4565b80601f01602080910402602001604051908101604052809291908181526020018280546129e290614eb4565b8015612a2f5780601f10612a0457610100808354040283529160200191612a2f565b820191906000526020600020905b815481529060010190602001808311612a1257829003601f168201915b50505050508152602001600582018054612a4890614eb4565b80601f0160208091040260200160405190810160405280929190818152602001828054612a7490614eb4565b8015612ac15780601f10612a9657610100808354040283529160200191612ac1565b820191906000526020600020905b815481529060010190602001808311612aa457829003601f168201915b50505050508152602001600682015481526020016007820160009054906101000a900460ff16151515158152602001600882018054612aff90614eb4565b80601f0160208091040260200160405190810160405280929190818152602001828054612b2b90614eb4565b8015612b785780601f10612b4d57610100808354040283529160200191612b78565b820191906000526020600020905b815481529060010190602001808311612b5b57829003601f168201915b505050505081525050815260200190600101906127c2565b5050505091505092915050565b600081805160208101820180518482526020830160208501208183528095505050505050600091509050806000018054612bd690614eb4565b80601f0160208091040260200160405190810160405280929190818152602001828054612c0290614eb4565b8015612c4f5780601f10612c2457610100808354040283529160200191612c4f565b820191906000526020600020905b815481529060010190602001808311612c3257829003601f168201915b505050505090806001018054612c6490614eb4565b80601f0160208091040260200160405190810160405280929190818152602001828054612c9090614eb4565b8015612cdd5780601f10612cb257610100808354040283529160200191612cdd565b820191906000526020600020905b815481529060010190602001808311612cc057829003601f168201915b505050505090806002018054612cf290614eb4565b80601f0160208091040260200160405190810160405280929190818152602001828054612d1e90614eb4565b8015612d6b5780601f10612d4057610100808354040283529160200191612d6b565b820191906000526020600020905b815481529060010190602001808311612d4e57829003601f168201915b505050505090806003018054612d8090614eb4565b80601f0160208091040260200160405190810160405280929190818152602001828054612dac90614eb4565b8015612df95780601f10612dce57610100808354040283529160200191612df9565b820191906000526020600020905b815481529060010190602001808311612ddc57829003601f168201915b505050505090806004018054612e0e90614eb4565b80601f0160208091040260200160405190810160405280929190818152602001828054612e3a90614eb4565b8015612e875780601f10612e5c57610100808354040283529160200191612e87565b820191906000526020600020905b815481529060010190602001808311612e6a57829003601f168201915b505050505090806005018054612e9c90614eb4565b80601f0160208091040260200160405190810160405280929190818152602001828054612ec890614eb4565b8015612f155780601f10612eea57610100808354040283529160200191612f15565b820191906000526020600020905b815481529060010190602001808311612ef857829003601f168201915b505050505090806006018054612f2a90614eb4565b80601f0160208091040260200160405190810160405280929190818152602001828054612f5690614eb4565b8015612fa35780601f10612f7857610100808354040283529160200191612fa3565b820191906000526020600020905b815481529060010190602001808311612f8657829003601f168201915b505050505090806007018054612fb890614eb4565b80601f0160208091040260200160405190810160405280929190818152602001828054612fe490614eb4565b80156130315780601f1061300657610100808354040283529160200191613031565b820191906000526020600020905b81548152906001019060200180831161301457829003601f168201915b50505050509080600801805461304690614eb4565b80601f016020809104026020016040519081016040528092919081815260200182805461307290614eb4565b80156130bf5780601f10613094576101008083540402835291602001916130bf565b820191906000526020600020905b8154815290600101906020018083116130a257829003601f168201915b5050505050905089565b600081805190602001206000846040516130e391906145f2565b908152602001604051809103902060080160405161310191906145db565b604051809103902014905092915050565b6060806060806060806060806000808a60405161312f91906145f2565b90815260200160405180910390206040518061012001604052908160008201805461315990614eb4565b80601f016020809104026020016040519081016040528092919081815260200182805461318590614eb4565b80156131d25780601f106131a7576101008083540402835291602001916131d2565b820191906000526020600020905b8154815290600101906020018083116131b557829003601f168201915b505050505081526020016001820180546131eb90614eb4565b80601f016020809104026020016040519081016040528092919081815260200182805461321790614eb4565b80156132645780601f1061323957610100808354040283529160200191613264565b820191906000526020600020905b81548152906001019060200180831161324757829003601f168201915b5050505050815260200160028201805461327d90614eb4565b80601f01602080910402602001604051908101604052809291908181526020018280546132a990614eb4565b80156132f65780601f106132cb576101008083540402835291602001916132f6565b820191906000526020600020905b8154815290600101906020018083116132d957829003601f168201915b5050505050815260200160038201805461330f90614eb4565b80601f016020809104026020016040519081016040528092919081815260200182805461333b90614eb4565b80156133885780601f1061335d57610100808354040283529160200191613388565b820191906000526020600020905b81548152906001019060200180831161336b57829003601f168201915b505050505081526020016004820180546133a190614eb4565b80601f01602080910402602001604051908101604052809291908181526020018280546133cd90614eb4565b801561341a5780601f106133ef5761010080835404028352916020019161341a565b820191906000526020600020905b8154815290600101906020018083116133fd57829003601f168201915b5050505050815260200160058201805461343390614eb4565b80601f016020809104026020016040519081016040528092919081815260200182805461345f90614eb4565b80156134ac5780601f10613481576101008083540402835291602001916134ac565b820191906000526020600020905b81548152906001019060200180831161348f57829003601f168201915b505050505081526020016006820180546134c590614eb4565b80601f01602080910402602001604051908101604052809291908181526020018280546134f190614eb4565b801561353e5780601f106135135761010080835404028352916020019161353e565b820191906000526020600020905b81548152906001019060200180831161352157829003601f168201915b5050505050815260200160078201805461355790614eb4565b80601f016020809104026020016040519081016040528092919081815260200182805461358390614eb4565b80156135d05780601f106135a5576101008083540402835291602001916135d0565b820191906000526020600020905b8154815290600101906020018083116135b357829003601f168201915b505050505081526020016008820180546135e990614eb4565b80601f016020809104026020016040519081016040528092919081815260200182805461361590614eb4565b80156136625780601f1061363757610100808354040283529160200191613662565b820191906000526020600020905b81548152906001019060200180831161364557829003601f168201915b5050505050815250509050806000015181602001518260400151836060015184608001518560a001518660c001518760e001519850985098509850985098509850985050919395975091939597565b600081805190602001206001846040516136cb91906145f2565b90815260200160405180910390206003016040516136e991906145db565b604051809103902014905092915050565b6006818154811061370a57600080fd5b906000526020600020016000915090505481565b60095481565b6060600a82101561375e57613738826137a7565b604051602001613748919061467c565b60405160208183030381529060405290506137a2565b606482101561379657613770826137a7565b6040516020016137809190614638565b60405160208183030381529060405290506137a2565b61379f826137a7565b90505b919050565b606060008214156137ef576040518060400160405280600181526020017f30000000000000000000000000000000000000000000000000000000000000008152509050613971565b600082905060005b6000821461382157808061380a90614ee6565b915050600a8261381a9190614d90565b91506137f7565b60008167ffffffffffffffff811115613863577f4e487b7100000000000000000000000000000000000000000000000000000000600052604160045260246000fd5b6040519080825280601f01601f1916602001820160405280156138955781602001600182028036833780820191505090505b50905060008290505b60008614613969576001816138b39190614e1b565b90506000600a80886138c59190614d90565b6138cf9190614dc1565b876138da9190614e1b565b60306138e69190614d59565b90508060f81b838381518110613925577f4e487b7100000000000000000000000000000000000000000000000000000000600052603260045260246000fd5b60200101907effffffffffffffffffffffffffffffffffffffffffffffffffffffffffffff1916908160001a905350600a876139619190614d90565b96505061389e565b819450505050505b919050565b82805461398290614eb4565b90600052602060002090601f0160209004810192826139a457600085556139eb565b82601f106139bd57805160ff19168380011785556139eb565b828001600101855582156139eb579182015b828111156139ea5782518255916020019190600101906139cf565b5b5090506139f891906139fc565b5090565b5b80821115613a155760008160009055506001016139fd565b5090565b6000613a2c613a2784614c5f565b614c2e565b905082815260208101848484011115613a4457600080fd5b613a4f848285614e72565b509392505050565b600081359050613a6681614ffc565b92915050565b600082601f830112613a7d57600080fd5b8135613a8d848260208601613a19565b91505092915050565b600081359050613aa581615013565b92915050565b600060208284031215613abd57600080fd5b600082013567ffffffffffffffff811115613ad757600080fd5b613ae384828501613a6c565b91505092915050565b60008060408385031215613aff57600080fd5b600083013567ffffffffffffffff811115613b1957600080fd5b613b2585828601613a6c565b925050602083013567ffffffffffffffff811115613b4257600080fd5b613b4e85828601613a6c565b9150509250929050565b60008060008060808587031215613b6e57600080fd5b600085013567ffffffffffffffff811115613b8857600080fd5b613b9487828801613a6c565b945050602085013567ffffffffffffffff811115613bb157600080fd5b613bbd87828801613a6c565b935050604085013567ffffffffffffffff811115613bda57600080fd5b613be687828801613a6c565b925050606085013567ffffffffffffffff811115613c0357600080fd5b613c0f87828801613a6c565b91505092959194509250565b60008060008060008060008060006101208a8c031215613c3a57600080fd5b60008a013567ffffffffffffffff811115613c5457600080fd5b613c608c828d01613a6c565b99505060208a013567ffffffffffffffff811115613c7d57600080fd5b613c898c828d01613a6c565b98505060408a013567ffffffffffffffff811115613ca657600080fd5b613cb28c828d01613a6c565b97505060608a013567ffffffffffffffff811115613ccf57600080fd5b613cdb8c828d01613a6c565b96505060808a013567ffffffffffffffff811115613cf857600080fd5b613d048c828d01613a6c565b95505060a08a013567ffffffffffffffff811115613d2157600080fd5b613d2d8c828d01613a6c565b94505060c08a013567ffffffffffffffff811115613d4a57600080fd5b613d568c828d01613a6c565b93505060e0613d678c828d01613a57565b9250506101008a013567ffffffffffffffff811115613d8557600080fd5b613d918c828d01613a6c565b9150509295985092959850929598565b600080600080600080600080610100898b031215613dbe57600080fd5b600089013567ffffffffffffffff811115613dd857600080fd5b613de48b828c01613a6c565b985050602089013567ffffffffffffffff811115613e0157600080fd5b613e0d8b828c01613a6c565b975050604089013567ffffffffffffffff811115613e2a57600080fd5b613e368b828c01613a6c565b965050606089013567ffffffffffffffff811115613e5357600080fd5b613e5f8b828c01613a6c565b955050608089013567ffffffffffffffff811115613e7c57600080fd5b613e888b828c01613a6c565b94505060a089013567ffffffffffffffff811115613ea557600080fd5b613eb18b828c01613a6c565b93505060c089013567ffffffffffffffff811115613ece57600080fd5b613eda8b828c01613a6c565b92505060e089013567ffffffffffffffff811115613ef757600080fd5b613f038b828c01613a6c565b9150509295985092959890939650565b60008060008060008060008060006101208a8c031215613f3257600080fd5b60008a013567ffffffffffffffff811115613f4c57600080fd5b613f588c828d01613a6c565b99505060208a013567ffffffffffffffff811115613f7557600080fd5b613f818c828d01613a6c565b98505060408a013567ffffffffffffffff811115613f9e57600080fd5b613faa8c828d01613a6c565b97505060608a013567ffffffffffffffff811115613fc757600080fd5b613fd38c828d01613a6c565b96505060808a013567ffffffffffffffff811115613ff057600080fd5b613ffc8c828d01613a6c565b95505060a08a013567ffffffffffffffff81111561401957600080fd5b6140258c828d01613a6c565b94505060c08a013567ffffffffffffffff81111561404257600080fd5b61404e8c828d01613a6c565b93505060e08a013567ffffffffffffffff81111561406b57600080fd5b6140778c828d01613a6c565b9250506101006140898c828d01613a57565b9150509295985092959850929598565b600080604083850312156140ac57600080fd5b600083013567ffffffffffffffff8111156140c657600080fd5b6140d285828601613a6c565b92505060206140e385828601613a96565b9150509250929050565b6000602082840312156140ff57600080fd5b600061410d84828501613a96565b91505092915050565b600061412283836144d5565b905092915050565b600061413683836145bd565b60208301905092915050565b600061414d82614cc4565b6141578185614cff565b93508360208202850161416985614c8f565b8060005b858110156141a557848403895281516141868582614116565b945061419183614ce5565b925060208a0199505060018101905061416d565b50829750879550505050505092915050565b60006141c282614ccf565b6141cc8185614d10565b93506141d783614c9f565b8060005b838110156142085781516141ef888261412a565b97506141fa83614cf2565b9250506001810190506141db565b5085935050505092915050565b61421e81614e4f565b82525050565b61422d81614e4f565b82525050565b6000815461424081614eb4565b61424a8186614d21565b945060018216600081146142655760018114614276576142a9565b60ff198316865281860193506142a9565b61427f85614caf565b60005b838110156142a157815481890152600182019150602081019050614282565b838801955050505b50505092915050565b60006142bd82614cda565b6142c78185614d2c565b93506142d7818560208601614e81565b6142e081614feb565b840191505092915050565b60006142f682614cda565b6143008185614d3d565b9350614310818560208601614e81565b61431981614feb565b840191505092915050565b600061432f82614cda565b6143398185614d4e565b9350614349818560208601614e81565b80840191505092915050565b6000614362600183614d4e565b91507f30000000000000000000000000000000000000000000000000000000000000006000830152600182019050919050565b60006143a2601a83614d3d565b91507f50617469656e7420616c726561647920726567697374657265640000000000006000830152602082019050919050565b60006143e2600183614d4e565b91507f50000000000000000000000000000000000000000000000000000000000000006000830152600182019050919050565b6000614422600183614d4e565b91507f5f000000000000000000000000000000000000000000000000000000000000006000830152600182019050919050565b6000614462601983614d3d565b91507f446f63746f7220616c72656164792072656769737465726564000000000000006000830152602082019050919050565b60006144a2600283614d4e565b91507f30300000000000000000000000000000000000000000000000000000000000006000830152600282019050919050565b6000610120830160008301516144ee60008601826145bd565b506020830151848203602086015261450682826142b2565b9150506040830151848203604086015261452082826142b2565b9150506060830151848203606086015261453a82826142b2565b9150506080830151848203608086015261455482826142b2565b91505060a083015184820360a086015261456e82826142b2565b91505060c083015161458360c08601826145bd565b5060e083015161459660e0860182614215565b506101008301518482036101008601526145b082826142b2565b9150508091505092915050565b6145c681614e5b565b82525050565b6145d581614e5b565b82525050565b60006145e78284614233565b915081905092915050565b60006145fe8284614324565b915081905092915050565b60006146158285614324565b915061462082614415565b915061462c8284614324565b91508190509392505050565b600061464382614355565b915061464f8284614324565b915081905092915050565b6000614665826143d5565b91506146718284614324565b915081905092915050565b600061468782614495565b91506146938284614324565b915081905092915050565b600060208201905081810360008301526146b88184614142565b905092915050565b600060208201905081810360008301526146da81846141b7565b905092915050565b60006020820190506146f76000830184614224565b92915050565b6000602082019050818103600083015261471781846142eb565b905092915050565b6000604082019050818103600083015261473981856142eb565b9050818103602083015261474d81846142eb565b90509392505050565b6000606082019050818103600083015261477081866142eb565b9050818103602083015261478481856142eb565b9050818103604083015261479881846142eb565b9050949350505050565b600060808201905081810360008301526147bc81876142eb565b905081810360208301526147d081866142eb565b905081810360408301526147e481856142eb565b905081810360608301526147f881846142eb565b905095945050505050565b600061010082019050818103600083015261481e818b6142eb565b90508181036020830152614832818a6142eb565b9050818103604083015261484681896142eb565b9050818103606083015261485a81886142eb565b9050818103608083015261486e81876142eb565b905081810360a083015261488281866142eb565b905081810360c083015261489681856142eb565b905081810360e08301526148aa81846142eb565b90509998505050505050505050565b60006101208201905081810360008301526148d4818c6142eb565b905081810360208301526148e8818b6142eb565b905081810360408301526148fc818a6142eb565b9050818103606083015261491081896142eb565b9050818103608083015261492481886142eb565b905081810360a083015261493881876142eb565b905081810360c083015261494c81866142eb565b905081810360e083015261496081856142eb565b905081810361010083015261497581846142eb565b90509a9950505050505050505050565b6000608082019050818103600083015261499f81876142eb565b905081810360208301526149b381866142eb565b905081810360408301526149c781856142eb565b90506149d660608301846145cc565b95945050505050565b600060208201905081810360008301526149f881614395565b9050919050565b60006020820190508181036000830152614a1881614455565b9050919050565b6000602082019050614a3460008301846145cc565b92915050565b6000608082019050614a4f60008301876145cc565b8181036020830152614a6181866142eb565b90508181036040830152614a7581856142eb565b90508181036060830152614a8981846142eb565b905095945050505050565b600061016082019050614aaa600083018e6145cc565b8181036020830152614abc818d6142eb565b90508181036040830152614ad0818c6142eb565b90508181036060830152614ae4818b6142eb565b90508181036080830152614af8818a6142eb565b905081810360a0830152614b0c81896142eb565b905081810360c0830152614b2081886142eb565b905081810360e0830152614b3481876142eb565b9050818103610100830152614b4981866142eb565b9050614b596101208301856145cc565b614b67610140830184614224565b9c9b505050505050505050505050565b600061012082019050614b8d600083018c6145cc565b8181036020830152614b9f818b6142eb565b90508181036040830152614bb3818a6142eb565b90508181036060830152614bc781896142eb565b90508181036080830152614bdb81886142eb565b905081810360a0830152614bef81876142eb565b9050614bfe60c08301866145cc565b614c0b60e0830185614224565b818103610100830152614c1e81846142eb565b90509a9950505050505050505050565b6000604051905081810181811067ffffffffffffffff82111715614c5557614c54614fbc565b5b8060405250919050565b600067ffffffffffffffff821115614c7a57614c79614fbc565b5b601f19601f8301169050602081019050919050565b6000819050602082019050919050565b6000819050602082019050919050565b60008190508160005260206000209050919050565b600081519050919050565b600081519050919050565b600081519050919050565b6000602082019050919050565b6000602082019050919050565b600082825260208201905092915050565b600082825260208201905092915050565b600081905092915050565b600082825260208201905092915050565b600082825260208201905092915050565b600081905092915050565b6000614d6482614e65565b9150614d6f83614e65565b92508260ff03821115614d8557614d84614f2f565b5b828201905092915050565b6000614d9b82614e5b565b9150614da683614e5b565b925082614db657614db5614f5e565b5b828204905092915050565b6000614dcc82614e5b565b9150614dd783614e5b565b9250817fffffffffffffffffffffffffffffffffffffffffffffffffffffffffffffffff0483118215151615614e1057614e0f614f2f565b5b828202905092915050565b6000614e2682614e5b565b9150614e3183614e5b565b925082821015614e4457614e43614f2f565b5b828203905092915050565b60008115159050919050565b6000819050919050565b600060ff82169050919050565b82818337600083830152505050565b60005b83811015614e9f578082015181840152602081019050614e84565b83811115614eae576000848401525b50505050565b60006002820490506001821680614ecc57607f821691505b60208210811415614ee057614edf614f8d565b5b50919050565b6000614ef182614e5b565b91507fffffffffffffffffffffffffffffffffffffffffffffffffffffffffffffffff821415614f2457614f23614f2f565b5b600182019050919050565b7f4e487b7100000000000000000000000000000000000000000000000000000000600052601160045260246000fd5b7f4e487b7100000000000000000000000000000000000000000000000000000000600052601260045260246000fd5b7f4e487b7100000000000000000000000000000000000000000000000000000000600052602260045260246000fd5b7f4e487b7100000000000000000000000000000000000000000000000000000000600052604160045260246000fd5b6000601f19601f8301169050919050565b61500581614e4f565b811461501057600080fd5b50565b61501c81614e5b565b811461502757600080fd5b5056fea2646970667358221220968868540521f2b0a66470a6d449e2ccf4cec24cd6305eef2a39395b5047481c64736f6c63430008000033",
  "immutableReferences": {},
  "source": "// SPDX-License-Identifier: MIT\r\npragma solidity ^0.8.0;\r\n\r\ncontract Healthcare {\r\n    struct Patient {\r\n        string id;\r\n        string name;\r\n        string disease;\r\n        string dob;\r\n        string mobile;\r\n        string email;\r\n        string sbp;\r\n        string sugar;\r\n        string password;\r\n    }\r\n\r\n    struct Doctor {\r\n        string doctorId;\r\n        string name;\r\n        string phone;\r\n        string password;\r\n    }\r\n\r\n    struct ChatMessage {\r\n        uint256 id;\r\n        string senderId;\r\n        string senderName;\r\n        string senderType; // \"patient\" or \"doctor\"\r\n        string message;\r\n        string encryptedMessage;\r\n        uint256 timestamp;\r\n        bool isAppointmentInfo;\r\n        string appointmentData; // JSON string for appointment data\r\n    }\r\n\r\n    struct Appointment {\r\n        uint256 id;\r\n        string patientId;\r\n        string patientName;\r\n        string doctorId;\r\n        string doctorName;\r\n        string date;\r\n        string time;\r\n        string reason;\r\n        string status;\r\n        uint256 createdAt;\r\n        bool fromRequest;\r\n    }\r\n\r\n    mapping(string => Patient) public patients;\r\n    mapping(string => Doctor) public doctors;\r\n    mapping(string => ChatMessage[]) public chatHistory; // chatKey => messages[]\r\n    mapping(uint256 => Appointment) public appointments;\r\n\r\n    string[] public patientIds;\r\n    string[] public doctorIds;\r\n    uint256[] public appointmentIds;\r\n\r\n    uint public patientCount = 0;\r\n    uint public doctorCount = 0;\r\n    uint256 public appointmentCount = 0;\r\n    uint256 public messageCount = 0;\r\n\r\n    event PatientRegistered(string patientId, string name);\r\n    event DoctorRegistered(string doctorId, string name);\r\n    event MessageSent(string chatKey, string senderId, string senderType, uint256 timestamp);\r\n    event AppointmentCreated(uint256 appointmentId, string patientId, string doctorId, string date);\r\n\r\n    // Helper to pad numbers to 3 digits (e.g., 1 -> 001)\r\n    function pad(uint num) private pure returns (string memory) {\r\n        if (num < 10) return string(abi.encodePacked(\"00\", uint2str(num)));\r\n        if (num < 100) return string(abi.encodePacked(\"0\", uint2str(num)));\r\n        return uint2str(num);\r\n    }\r\n\r\n    function uint2str(uint _i) private pure returns (string memory str) {\r\n        if (_i == 0) return \"0\";\r\n        uint j = _i;\r\n        uint len;\r\n        while (j != 0) {\r\n            len++;\r\n            j /= 10;\r\n        }\r\n        bytes memory bstr = new bytes(len);\r\n        uint k = len;\r\n        while (_i != 0) {\r\n            k = k-1;\r\n            uint8 temp = (48 + uint8(_i - _i / 10 * 10));\r\n            bstr[k] = bytes1(temp);\r\n            _i /= 10;\r\n        }\r\n        str = string(bstr);\r\n    }\r\n\r\n    // Register a patient (auto-generate ID)\r\n    function registerPatient(\r\n        string memory _name,\r\n        string memory _disease,\r\n        string memory _dob,\r\n        string memory _mobile,\r\n        string memory _email,\r\n        string memory _sbp,\r\n        string memory _sugar,\r\n        string memory _password\r\n    ) public returns (string memory) {\r\n        patientCount++;\r\n        string memory newId = string(abi.encodePacked(\"P\", pad(patientCount)));\r\n        require(bytes(patients[newId].id).length == 0, \"Patient already registered\");\r\n        patients[newId] = Patient(newId, _name, _disease, _dob, _mobile, _email, _sbp, _sugar, _password);\r\n        patientIds.push(newId);\r\n        emit PatientRegistered(newId, _name);\r\n        return newId;\r\n    }\r\n\r\n    // Register a doctor (frontend supplies regId)\r\n    function registerDoctor(\r\n        string memory _name,\r\n        string memory _regId,\r\n        string memory _phone,\r\n        string memory _password\r\n    ) public returns (string memory) {\r\n        require(bytes(doctors[_regId].doctorId).length == 0, \"Doctor already registered\");\r\n        doctors[_regId] = Doctor(_regId, _name, _phone, _password);\r\n        doctorIds.push(_regId);\r\n        doctorCount++; // Increment doctor count\r\n        emit DoctorRegistered(_regId, _name);\r\n        return _regId;\r\n    }\r\n\r\n    // Patient login\r\n    function loginPatient(string memory _patientId, string memory _password) public view returns (bool) {\r\n        return (keccak256(bytes(patients[_patientId].password)) == keccak256(bytes(_password)));\r\n    }\r\n\r\n    // Doctor login\r\n    function loginDoctor(string memory _regId, string memory _password) public view returns (bool) {\r\n        return (keccak256(bytes(doctors[_regId].password)) == keccak256(bytes(_password)));\r\n    }\r\n\r\n    // Get a patient by ID (for login/dashboard)\r\n    function getPatientById(string memory _patientId) public view returns (\r\n        string memory id,\r\n        string memory name,\r\n        string memory disease,\r\n        string memory dob,\r\n        string memory mobile,\r\n        string memory email,\r\n        string memory sbp,\r\n        string memory sugar\r\n    ) {\r\n        Patient memory p = patients[_patientId];\r\n        return (p.id, p.name, p.disease, p.dob, p.mobile, p.email, p.sbp, p.sugar);\r\n    }\r\n\r\n    // Get doctor info by regId\r\n    function getDoctorByRegId(string memory _regId) public view returns (\r\n        string memory name,\r\n        string memory regId,\r\n        string memory phone\r\n    ) {\r\n        Doctor memory d = doctors[_regId];\r\n        return (d.name, d.doctorId, d.phone);\r\n    }\r\n\r\n    // Chat functionality\r\n    function sendChatMessage(\r\n        string memory _patientId,\r\n        string memory _doctorId,\r\n        string memory _senderId,\r\n        string memory _senderName,\r\n        string memory _senderType,\r\n        string memory _message,\r\n        string memory _encryptedMessage,\r\n        bool _isAppointmentInfo,\r\n        string memory _appointmentData\r\n    ) public returns (uint256) {\r\n        messageCount++;\r\n        string memory chatKey = string(abi.encodePacked(_patientId, \"_\", _doctorId));\r\n        \r\n        ChatMessage memory newMessage = ChatMessage({\r\n            id: messageCount,\r\n            senderId: _senderId,\r\n            senderName: _senderName,\r\n            senderType: _senderType,\r\n            message: _message,\r\n            encryptedMessage: _encryptedMessage,\r\n            timestamp: block.timestamp,\r\n            isAppointmentInfo: _isAppointmentInfo,\r\n            appointmentData: _appointmentData\r\n        });\r\n        \r\n        chatHistory[chatKey].push(newMessage);\r\n        \r\n        emit MessageSent(chatKey, _senderId, _senderType, block.timestamp);\r\n        return messageCount;\r\n    }\r\n\r\n    // Get chat messages between patient and doctor\r\n    function getChatMessages(string memory _patientId, string memory _doctorId) \r\n        public view returns (ChatMessage[] memory) {\r\n        string memory chatKey = string(abi.encodePacked(_patientId, \"_\", _doctorId));\r\n        return chatHistory[chatKey];\r\n    }\r\n\r\n    // Get number of messages in a chat\r\n    function getChatMessageCount(string memory _patientId, string memory _doctorId) \r\n        public view returns (uint256) {\r\n        string memory chatKey = string(abi.encodePacked(_patientId, \"_\", _doctorId));\r\n        return chatHistory[chatKey].length;\r\n    }\r\n\r\n    // Store appointment on blockchain\r\n    function createAppointment(\r\n        string memory _patientId,\r\n        string memory _patientName,\r\n        string memory _doctorId,\r\n        string memory _doctorName,\r\n        string memory _date,\r\n        string memory _time,\r\n        string memory _reason,\r\n        string memory _status,\r\n        bool _fromRequest\r\n    ) public returns (uint256) {\r\n        appointmentCount++;\r\n        \r\n        Appointment memory newAppointment = Appointment({\r\n            id: appointmentCount,\r\n            patientId: _patientId,\r\n            patientName: _patientName,\r\n            doctorId: _doctorId,\r\n            doctorName: _doctorName,\r\n            date: _date,\r\n            time: _time,\r\n            reason: _reason,\r\n            status: _status,\r\n            createdAt: block.timestamp,\r\n            fromRequest: _fromRequest\r\n        });\r\n        \r\n        appointments[appointmentCount] = newAppointment;\r\n        appointmentIds.push(appointmentCount);\r\n        \r\n        emit AppointmentCreated(appointmentCount, _patientId, _doctorId, _date);\r\n        return appointmentCount;\r\n    }\r\n\r\n    // Get appointments for a patient\r\n    function getPatientAppointments(string memory _patientId) \r\n        public view returns (uint256[] memory) {\r\n        uint256[] memory result = new uint256[](appointmentCount);\r\n        uint256 counter = 0;\r\n        \r\n        for (uint256 i = 1; i <= appointmentCount; i++) {\r\n            if (keccak256(bytes(appointments[i].patientId)) == keccak256(bytes(_patientId))) {\r\n                result[counter] = i;\r\n                counter++;\r\n            }\r\n        }\r\n        \r\n        // Resize array to actual count\r\n        uint256[] memory patientAppointments = new uint256[](counter);\r\n        for (uint256 i = 0; i < counter; i++) {\r\n            patientAppointments[i] = result[i];\r\n        }\r\n        \r\n        return patientAppointments;\r\n    }\r\n\r\n    // Get appointments for a doctor\r\n    function getDoctorAppointments(string memory _doctorId) \r\n        public view returns (uint256[] memory) {\r\n        uint256[] memory result = new uint256[](appointmentCount);\r\n        uint256 counter = 0;\r\n        \r\n        for (uint256 i = 1; i <= appointmentCount; i++) {\r\n            if (keccak256(bytes(appointments[i].doctorId)) == keccak256(bytes(_doctorId))) {\r\n                result[counter] = i;\r\n                counter++;\r\n            }\r\n        }\r\n        \r\n        // Resize array to actual count\r\n        uint256[] memory doctorAppointments = new uint256[](counter);\r\n        for (uint256 i = 0; i < counter; i++) {\r\n            doctorAppointments[i] = result[i];\r\n        }\r\n        \r\n        return doctorAppointments;\r\n    }\r\n\r\n    // Get appointment by ID\r\n    function getAppointmentById(uint256 _appointmentId) public view returns (\r\n        uint256 id,\r\n        string memory patientId,\r\n        string memory patientName,\r\n        string memory doctorId,\r\n        string memory doctorName,\r\n        string memory date,\r\n        string memory time,\r\n        string memory reason,\r\n        string memory status,\r\n        uint256 createdAt,\r\n        bool fromRequest\r\n    ) {\r\n        Appointment memory apt = appointments[_appointmentId];\r\n        return (\r\n            apt.id,\r\n            apt.patientId,\r\n            apt.patientName,\r\n            apt.doctorId,\r\n            apt.doctorName,\r\n            apt.date,\r\n            apt.time,\r\n            apt.reason,\r\n            apt.status,\r\n            apt.createdAt,\r\n            apt.fromRequest\r\n        );\r\n    }\r\n}",
  "sourcePath": "C:\\Users\\maste\\OneDrive\\Desktop\\DApp\\healthcareDapp\\contracts\\Healthcare.sol",
  "compiler": {
    "name": "solc",
    "version": "0.8.0+commit.c7dfd78e.Emscripten.clang"
  },
  "schemaVersion": "3.4.16",
  "updatedAt": "2025-08-04T16:46:16.433Z",
  "networkType": "ethereum",
  "devdoc": {
    "kind": "dev",
    "methods": {},
    "version": 1
  },
  "userdoc": {
    "kind": "user",
    "methods": {},
    "version": 1
  }
}